{"abi":[{"type":"constructor","inputs":[],"stateMutability":"nonpayable"},{"type":"fallback","stateMutability":"payable"},{"type":"receive","stateMutability":"payable"},{"type":"function","name":"MILESTONE_APPROVAL_PERIOD","inputs":[],"outputs":[{"name":"","type":"uint256","internalType":"uint256"}],"stateMutability":"view"},{"type":"function","name":"MILESTONE_SUBMISSION_PERIOD","inputs":[],"outputs":[{"name":"","type":"uint256","internalType":"uint256"}],"stateMutability":"view"},{"type":"function","name":"NFT_MILESTONE_LEVELS","inputs":[{"name":"","type":"uint256","internalType":"uint256"}],"outputs":[{"name":"","type":"uint256","internalType":"uint256"}],"stateMutability":"view"},{"type":"function","name":"VOTES_REQUIRED","inputs":[],"outputs":[{"name":"","type":"uint256","internalType":"uint256"}],"stateMutability":"view"},{"type":"function","name":"VOTING_PERIOD","inputs":[],"outputs":[{"name":"","type":"uint256","internalType":"uint256"}],"stateMutability":"view"},{"type":"function","name":"XP_LEVEL_THRESHOLD","inputs":[],"outputs":[{"name":"","type":"uint256","internalType":"uint256"}],"stateMutability":"view"},{"type":"function","name":"XP_PER_ETH","inputs":[],"outputs":[{"name":"","type":"uint256","internalType":"uint256"}],"stateMutability":"view"},{"type":"function","name":"adjustProposalTotalVotes","inputs":[{"name":"_proposalId","type":"uint256","internalType":"uint256"},{"name":"_votesToSet","type":"uint256","internalType":"uint256"}],"outputs":[],"stateMutability":"nonpayable"},{"type":"function","name":"adjustUserExperience","inputs":[{"name":"_user","type":"address","internalType":"address"},{"name":"_xpChange","type":"uint256","internalType":"uint256"},{"name":"_increase","type":"bool","internalType":"bool"}],"outputs":[],"stateMutability":"nonpayable"},{"type":"function","name":"approve","inputs":[{"name":"to","type":"address","internalType":"address"},{"name":"tokenId","type":"uint256","internalType":"uint256"}],"outputs":[],"stateMutability":"nonpayable"},{"type":"function","name":"approveMilestone","inputs":[{"name":"_proposalId","type":"uint256","internalType":"uint256"},{"name":"_milestoneIndex","type":"uint256","internalType":"uint256"},{"name":"_approve","type":"bool","internalType":"bool"}],"outputs":[],"stateMutability":"nonpayable"},{"type":"function","name":"balanceOf","inputs":[{"name":"owner","type":"address","internalType":"address"}],"outputs":[{"name":"","type":"uint256","internalType":"uint256"}],"stateMutability":"view"},{"type":"function","name":"cancelProposal","inputs":[{"name":"_proposalId","type":"uint256","internalType":"uint256"},{"name":"_reason","type":"string","internalType":"string"}],"outputs":[],"stateMutability":"nonpayable"},{"type":"function","name":"createProposal","inputs":[{"name":"_title","type":"string","internalType":"string"},{"name":"_description","type":"string","internalType":"string"},{"name":"_fundingGoal","type":"uint256","internalType":"uint256"},{"name":"_milestonesTitles","type":"string[]","internalType":"string[]"},{"name":"_milestonesDescriptions","type":"string[]","internalType":"string[]"},{"name":"_milestonePercentages","type":"uint256[]","internalType":"uint256[]"}],"outputs":[],"stateMutability":"nonpayable"},{"type":"function","name":"donate","inputs":[{"name":"_proposalId","type":"uint256","internalType":"uint256"}],"outputs":[],"stateMutability":"payable"},{"type":"function","name":"getApproved","inputs":[{"name":"tokenId","type":"uint256","internalType":"uint256"}],"outputs":[{"name":"","type":"address","internalType":"address"}],"stateMutability":"view"},{"type":"function","name":"getProposalDetails","inputs":[{"name":"_proposalId","type":"uint256","internalType":"uint256"}],"outputs":[{"name":"","type":"tuple","internalType":"struct Chariteth.Proposal","components":[{"name":"creator","type":"address","internalType":"address"},{"name":"title","type":"string","internalType":"string"},{"name":"description","type":"string","internalType":"string"},{"name":"fundingGoal","type":"uint256","internalType":"uint256"},{"name":"totalRaised","type":"uint256","internalType":"uint256"},{"name":"status","type":"uint8","internalType":"enum Chariteth.ProposalStatus"},{"name":"creationTime","type":"uint256","internalType":"uint256"},{"name":"votingDeadline","type":"uint256","internalType":"uint256"},{"name":"totalVotes","type":"uint256","internalType":"uint256"},{"name":"currentMilestone","type":"uint256","internalType":"uint256"},{"name":"milestones","type":"tuple[]","internalType":"struct Chariteth.Milestone[]","components":[{"name":"title","type":"string","internalType":"string"},{"name":"description","type":"string","internalType":"string"},{"name":"percentage","type":"uint256","internalType":"uint256"},{"name":"fundsAllocated","type":"uint256","internalType":"uint256"},{"name":"documentHash","type":"string","internalType":"string"},{"name":"status","type":"uint8","internalType":"enum Chariteth.MilestoneStatus"},{"name":"submissionTime","type":"uint256","internalType":"uint256"},{"name":"approvalDeadline","type":"uint256","internalType":"uint256"}]}]}],"stateMutability":"view"},{"type":"function","name":"getUserProfile","inputs":[{"name":"_user","type":"address","internalType":"address"}],"outputs":[{"name":"experiencePoints","type":"uint256","internalType":"uint256"},{"name":"level","type":"uint256","internalType":"uint256"}],"stateMutability":"view"},{"type":"function","name":"hasVoted","inputs":[{"name":"","type":"address","internalType":"address"},{"name":"","type":"uint256","internalType":"uint256"}],"outputs":[{"name":"","type":"bool","internalType":"bool"}],"stateMutability":"view"},{"type":"function","name":"isApprovedForAll","inputs":[{"name":"owner","type":"address","internalType":"address"},{"name":"operator","type":"address","internalType":"address"}],"outputs":[{"name":"","type":"bool","internalType":"bool"}],"stateMutability":"view"},{"type":"function","name":"kycVerifications","inputs":[{"name":"","type":"address","internalType":"address"}],"outputs":[{"name":"isVerified","type":"bool","internalType":"bool"},{"name":"documentHash","type":"string","internalType":"string"},{"name":"verificationTimestamp","type":"uint256","internalType":"uint256"}],"stateMutability":"view"},{"type":"function","name":"milestoneApprovals","inputs":[{"name":"","type":"address","internalType":"address"},{"name":"","type":"uint256","internalType":"uint256"},{"name":"","type":"uint256","internalType":"uint256"}],"outputs":[{"name":"","type":"bool","internalType":"bool"}],"stateMutability":"view"},{"type":"function","name":"name","inputs":[],"outputs":[{"name":"","type":"string","internalType":"string"}],"stateMutability":"view"},{"type":"function","name":"owner","inputs":[],"outputs":[{"name":"","type":"address","internalType":"address"}],"stateMutability":"view"},{"type":"function","name":"ownerOf","inputs":[{"name":"tokenId","type":"uint256","internalType":"uint256"}],"outputs":[{"name":"","type":"address","internalType":"address"}],"stateMutability":"view"},{"type":"function","name":"proposals","inputs":[{"name":"","type":"uint256","internalType":"uint256"}],"outputs":[{"name":"creator","type":"address","internalType":"address"},{"name":"title","type":"string","internalType":"string"},{"name":"description","type":"string","internalType":"string"},{"name":"fundingGoal","type":"uint256","internalType":"uint256"},{"name":"totalRaised","type":"uint256","internalType":"uint256"},{"name":"status","type":"uint8","internalType":"enum Chariteth.ProposalStatus"},{"name":"creationTime","type":"uint256","internalType":"uint256"},{"name":"votingDeadline","type":"uint256","internalType":"uint256"},{"name":"totalVotes","type":"uint256","internalType":"uint256"},{"name":"currentMilestone","type":"uint256","internalType":"uint256"}],"stateMutability":"view"},{"type":"function","name":"refundDonors","inputs":[{"name":"_proposalId","type":"uint256","internalType":"uint256"}],"outputs":[],"stateMutability":"nonpayable"},{"type":"function","name":"renounceOwnership","inputs":[],"outputs":[],"stateMutability":"nonpayable"},{"type":"function","name":"safeTransferFrom","inputs":[{"name":"from","type":"address","internalType":"address"},{"name":"to","type":"address","internalType":"address"},{"name":"tokenId","type":"uint256","internalType":"uint256"}],"outputs":[],"stateMutability":"nonpayable"},{"type":"function","name":"safeTransferFrom","inputs":[{"name":"from","type":"address","internalType":"address"},{"name":"to","type":"address","internalType":"address"},{"name":"tokenId","type":"uint256","internalType":"uint256"},{"name":"data","type":"bytes","internalType":"bytes"}],"outputs":[],"stateMutability":"nonpayable"},{"type":"function","name":"setApprovalForAll","inputs":[{"name":"operator","type":"address","internalType":"address"},{"name":"approved","type":"bool","internalType":"bool"}],"outputs":[],"stateMutability":"nonpayable"},{"type":"function","name":"submitKYC","inputs":[{"name":"_documentHash","type":"string","internalType":"string"}],"outputs":[],"stateMutability":"nonpayable"},{"type":"function","name":"submitMilestoneDocument","inputs":[{"name":"_proposalId","type":"uint256","internalType":"uint256"},{"name":"_milestoneIndex","type":"uint256","internalType":"uint256"},{"name":"_documentHash","type":"string","internalType":"string"}],"outputs":[],"stateMutability":"nonpayable"},{"type":"function","name":"supportsInterface","inputs":[{"name":"interfaceId","type":"bytes4","internalType":"bytes4"}],"outputs":[{"name":"","type":"bool","internalType":"bool"}],"stateMutability":"view"},{"type":"function","name":"symbol","inputs":[],"outputs":[{"name":"","type":"string","internalType":"string"}],"stateMutability":"view"},{"type":"function","name":"tokenByIndex","inputs":[{"name":"index","type":"uint256","internalType":"uint256"}],"outputs":[{"name":"","type":"uint256","internalType":"uint256"}],"stateMutability":"view"},{"type":"function","name":"tokenOfOwnerByIndex","inputs":[{"name":"owner","type":"address","internalType":"address"},{"name":"index","type":"uint256","internalType":"uint256"}],"outputs":[{"name":"","type":"uint256","internalType":"uint256"}],"stateMutability":"view"},{"type":"function","name":"tokenURI","inputs":[{"name":"tokenId","type":"uint256","internalType":"uint256"}],"outputs":[{"name":"","type":"string","internalType":"string"}],"stateMutability":"view"},{"type":"function","name":"totalSupply","inputs":[],"outputs":[{"name":"","type":"uint256","internalType":"uint256"}],"stateMutability":"view"},{"type":"function","name":"transferFrom","inputs":[{"name":"from","type":"address","internalType":"address"},{"name":"to","type":"address","internalType":"address"},{"name":"tokenId","type":"uint256","internalType":"uint256"}],"outputs":[],"stateMutability":"nonpayable"},{"type":"function","name":"transferOwnership","inputs":[{"name":"newOwner","type":"address","internalType":"address"}],"outputs":[],"stateMutability":"nonpayable"},{"type":"function","name":"userDonations","inputs":[{"name":"","type":"address","internalType":"address"},{"name":"","type":"uint256","internalType":"uint256"}],"outputs":[{"name":"","type":"uint256","internalType":"uint256"}],"stateMutability":"view"},{"type":"function","name":"userProfiles","inputs":[{"name":"","type":"address","internalType":"address"}],"outputs":[{"name":"experiencePoints","type":"uint256","internalType":"uint256"},{"name":"level","type":"uint256","internalType":"uint256"}],"stateMutability":"view"},{"type":"function","name":"voteOnProposal","inputs":[{"name":"_proposalId","type":"uint256","internalType":"uint256"}],"outputs":[],"stateMutability":"nonpayable"},{"type":"event","name":"Approval","inputs":[{"name":"owner","type":"address","indexed":true,"internalType":"address"},{"name":"approved","type":"address","indexed":true,"internalType":"address"},{"name":"tokenId","type":"uint256","indexed":true,"internalType":"uint256"}],"anonymous":false},{"type":"event","name":"ApprovalForAll","inputs":[{"name":"owner","type":"address","indexed":true,"internalType":"address"},{"name":"operator","type":"address","indexed":true,"internalType":"address"},{"name":"approved","type":"bool","indexed":false,"internalType":"bool"}],"anonymous":false},{"type":"event","name":"BatchMetadataUpdate","inputs":[{"name":"_fromTokenId","type":"uint256","indexed":false,"internalType":"uint256"},{"name":"_toTokenId","type":"uint256","indexed":false,"internalType":"uint256"}],"anonymous":false},{"type":"event","name":"Donation","inputs":[{"name":"proposalId","type":"uint256","indexed":true,"internalType":"uint256"},{"name":"donor","type":"address","indexed":false,"internalType":"address"},{"name":"amount","type":"uint256","indexed":false,"internalType":"uint256"}],"anonymous":false},{"type":"event","name":"FundReleased","inputs":[{"name":"proposalId","type":"uint256","indexed":true,"internalType":"uint256"},{"name":"milestoneIndex","type":"uint256","indexed":false,"internalType":"uint256"},{"name":"amount","type":"uint256","indexed":false,"internalType":"uint256"}],"anonymous":false},{"type":"event","name":"KYCVerified","inputs":[{"name":"user","type":"address","indexed":true,"internalType":"address"},{"name":"documentHash","type":"string","indexed":false,"internalType":"string"}],"anonymous":false},{"type":"event","name":"LevelUp","inputs":[{"name":"user","type":"address","indexed":true,"internalType":"address"},{"name":"newLevel","type":"uint256","indexed":false,"internalType":"uint256"}],"anonymous":false},{"type":"event","name":"MetadataUpdate","inputs":[{"name":"_tokenId","type":"uint256","indexed":false,"internalType":"uint256"}],"anonymous":false},{"type":"event","name":"MilestoneApproved","inputs":[{"name":"proposalId","type":"uint256","indexed":true,"internalType":"uint256"},{"name":"milestoneIndex","type":"uint256","indexed":false,"internalType":"uint256"}],"anonymous":false},{"type":"event","name":"MilestoneRejected","inputs":[{"name":"proposalId","type":"uint256","indexed":true,"internalType":"uint256"},{"name":"milestoneIndex","type":"uint256","indexed":false,"internalType":"uint256"},{"name":"reason","type":"string","indexed":false,"internalType":"string"}],"anonymous":false},{"type":"event","name":"MilestoneSubmitted","inputs":[{"name":"proposalId","type":"uint256","indexed":true,"internalType":"uint256"},{"name":"milestoneIndex","type":"uint256","indexed":false,"internalType":"uint256"},{"name":"documentHash","type":"string","indexed":false,"internalType":"string"}],"anonymous":false},{"type":"event","name":"NFTAwarded","inputs":[{"name":"user","type":"address","indexed":true,"internalType":"address"},{"name":"tokenId","type":"uint256","indexed":false,"internalType":"uint256"},{"name":"level","type":"uint256","indexed":false,"internalType":"uint256"}],"anonymous":false},{"type":"event","name":"OwnershipTransferred","inputs":[{"name":"previousOwner","type":"address","indexed":true,"internalType":"address"},{"name":"newOwner","type":"address","indexed":true,"internalType":"address"}],"anonymous":false},{"type":"event","name":"ProposalActivated","inputs":[{"name":"proposalId","type":"uint256","indexed":true,"internalType":"uint256"}],"anonymous":false},{"type":"event","name":"ProposalCancelled","inputs":[{"name":"proposalId","type":"uint256","indexed":true,"internalType":"uint256"},{"name":"reason","type":"string","indexed":false,"internalType":"string"}],"anonymous":false},{"type":"event","name":"ProposalCreated","inputs":[{"name":"proposalId","type":"uint256","indexed":true,"internalType":"uint256"},{"name":"creator","type":"address","indexed":false,"internalType":"address"},{"name":"title","type":"string","indexed":false,"internalType":"string"}],"anonymous":false},{"type":"event","name":"ProposalVoted","inputs":[{"name":"proposalId","type":"uint256","indexed":true,"internalType":"uint256"},{"name":"voter","type":"address","indexed":false,"internalType":"address"}],"anonymous":false},{"type":"event","name":"Transfer","inputs":[{"name":"from","type":"address","indexed":true,"internalType":"address"},{"name":"to","type":"address","indexed":true,"internalType":"address"},{"name":"tokenId","type":"uint256","indexed":true,"internalType":"uint256"}],"anonymous":false},{"type":"error","name":"ERC721EnumerableForbiddenBatchMint","inputs":[]},{"type":"error","name":"ERC721IncorrectOwner","inputs":[{"name":"sender","type":"address","internalType":"address"},{"name":"tokenId","type":"uint256","internalType":"uint256"},{"name":"owner","type":"address","internalType":"address"}]},{"type":"error","name":"ERC721InsufficientApproval","inputs":[{"name":"operator","type":"address","internalType":"address"},{"name":"tokenId","type":"uint256","internalType":"uint256"}]},{"type":"error","name":"ERC721InvalidApprover","inputs":[{"name":"approver","type":"address","internalType":"address"}]},{"type":"error","name":"ERC721InvalidOperator","inputs":[{"name":"operator","type":"address","internalType":"address"}]},{"type":"error","name":"ERC721InvalidOwner","inputs":[{"name":"owner","type":"address","internalType":"address"}]},{"type":"error","name":"ERC721InvalidReceiver","inputs":[{"name":"receiver","type":"address","internalType":"address"}]},{"type":"error","name":"ERC721InvalidSender","inputs":[{"name":"sender","type":"address","internalType":"address"}]},{"type":"error","name":"ERC721NonexistentToken","inputs":[{"name":"tokenId","type":"uint256","internalType":"uint256"}]},{"type":"error","name":"ERC721OutOfBoundsIndex","inputs":[{"name":"owner","type":"address","internalType":"address"},{"name":"index","type":"uint256","internalType":"uint256"}]},{"type":"error","name":"OwnableInvalidOwner","inputs":[{"name":"owner","type":"address","internalType":"address"}]},{"type":"error","name":"OwnableUnauthorizedAccount","inputs":[{"name":"account","type":"address","internalType":"address"}]},{"type":"error","name":"ReentrancyGuardReentrantCall","inputs":[]}],"bytecode":{"object":"0x61010060405260016080908152600560a052600a60c052600f60e05261002990601590600461012a565b50348015610035575f5ffd5b50336040518060400160405280600d81526020016c119d5b991c985a5cd95c939195609a1b815250604051806040016040528060048152602001631193919560e21b815250815f90816100889190610224565b5060016100958282610224565b5050506001600160a01b0381166100c557604051631e4fbdf760e01b81525f600482015260240160405180910390fd5b6100ce816100d9565b506001600c556102de565b600b80546001600160a01b038381166001600160a01b0319831681179093556040519116919082907f8be0079c531659141344cd1fd0a4f28419497f9722a3daafe3b4186f6b6457e0905f90a35050565b828054828255905f5260205f20908101928215610168579160200282015b82811115610168578251829060ff16905591602001919060010190610148565b50610174929150610178565b5090565b5b80821115610174575f8155600101610179565b634e487b7160e01b5f52604160045260245ffd5b600181811c908216806101b457607f821691505b6020821081036101d257634e487b7160e01b5f52602260045260245ffd5b50919050565b601f82111561021f57805f5260205f20601f840160051c810160208510156101fd5750805b601f840160051c820191505b8181101561021c575f8155600101610209565b50505b505050565b81516001600160401b0381111561023d5761023d61018c565b6102518161024b84546101a0565b846101d8565b6020601f821160018114610283575f831561026c5750848201515b5f19600385901b1c1916600184901b17845561021c565b5f84815260208120601f198516915b828110156102b25787850151825560209485019460019092019101610292565b50848210156102cf57868401515f19600387901b60f8161c191681555b50505050600190811b01905550565b6140c6806102eb5f395ff3fe608060405260043610610251575f3560e01c806370a0823111610137578063b1610d7e116100af578063d835391511610076578063d8353915146107a7578063dd87fc2e146107bb578063e12ae95114610720578063e985e9c5146107da578063f14faf6f146107f9578063f2fde38b1461080c57005b8063b1610d7e14610720578063b88d4fde14610736578063c172b82914610755578063c4d665f114610774578063c87b56dd1461078857005b80638da5cb5b116100fe5780638da5cb5b1461065657806395d89b4114610673578063987ee15614610687578063a22cb465146106c3578063a351f615146106e2578063add68edc1461070157005b806370a08231146105cf578063715018a6146105ee578063870a08f0146106025780638acd2fe7146106215780638b1260ea1461063757005b8063332d56d7116101ca5780634933e631116101915780634933e631146104e95780634a0d5b771461051f5780634f6ccce714610533578063608bdc08146105525780636352211e1461057157806365a285401461059057005b8063332d56d7146103ff5780633b4d01a714610446578063425458251461047257806342842e0e146104ab578063453ae3cf146104ca57005b8063095ea7b311610219578063095ea7b3146103375780630e4d1d3f1461035657806318160ddd1461038457806320337a4d146103a257806323b872dd146103c15780632f745c59146103e057005b8063013cf08b1461025357806301ffc9a71461029157806306fdde03146102c057806307960d93146102e1578063081812fc14610300575b005b34801561025e575f5ffd5b5061027261026d366004613447565b61082b565b6040516102889a999897969594939291906134c9565b60405180910390f35b34801561029c575f5ffd5b506102b06102ab36600461355a565b610993565b6040519015158152602001610288565b3480156102cb575f5ffd5b506102d46109c1565b6040516102889190613575565b3480156102ec575f5ffd5b506102516102fb36600461374b565b610a50565b34801561030b575f5ffd5b5061031f61031a366004613447565b610e92565b6040516001600160a01b039091168152602001610288565b348015610342575f5ffd5b5061025161035136600461384c565b610eb9565b348015610361575f5ffd5b50610375610370366004613874565b610ec8565b6040516102889392919061388d565b34801561038f575f5ffd5b506008545b604051908152602001610288565b3480156103ad575f5ffd5b506102516103bc3660046138c6565b610f74565b3480156103cc575f5ffd5b506102516103db3660046138f8565b6111c5565b3480156103eb575f5ffd5b506103946103fa36600461384c565b61124e565b34801561040a575f5ffd5b50610431610419366004613874565b60116020525f90815260409020805460019091015482565b60408051928352602083019190915201610288565b348015610451575f5ffd5b50610465610460366004613447565b6112b1565b6040516102889190613a07565b34801561047d575f5ffd5b506102b061048c36600461384c565b600f60209081525f928352604080842090915290825290205460ff1681565b3480156104b6575f5ffd5b506102516104c53660046138f8565b6116e1565b3480156104d5575f5ffd5b506102516104e4366004613ad7565b611700565b3480156104f4575f5ffd5b5061039461050336600461384c565b601060209081525f928352604080842090915290825290205481565b34801561052a575f5ffd5b50610394606481565b34801561053e575f5ffd5b5061039461054d366004613447565b6117b4565b34801561055d575f5ffd5b5061025161056c366004613447565b611809565b34801561057c575f5ffd5b5061031f61058b366004613447565b6119de565b34801561059b575f5ffd5b506102b06105aa366004613b08565b601260209081525f938452604080852082529284528284209052825290205460ff1681565b3480156105da575f5ffd5b506103946105e9366004613874565b6119e8565b3480156105f9575f5ffd5b50610251611a2d565b34801561060d575f5ffd5b5061039461061c366004613447565b611a40565b34801561062c575f5ffd5b506103946203f48081565b348015610642575f5ffd5b50610251610651366004613b38565b611a5f565b348015610661575f5ffd5b50600b546001600160a01b031661031f565b34801561067e575f5ffd5b506102d4611ac9565b348015610692575f5ffd5b506104316106a1366004613874565b6001600160a01b03165f90815260116020526040902080546001909101549091565b3480156106ce575f5ffd5b506102516106dd366004613b68565b611ad8565b3480156106ed575f5ffd5b506102516106fc366004613b99565b611ae3565b34801561070c575f5ffd5b5061025161071b366004613447565b611c48565b34801561072b575f5ffd5b506103946212750081565b348015610741575f5ffd5b50610251610750366004613bdc565b611e19565b348015610760575f5ffd5b5061025161076f366004613c52565b611e31565b34801561077f575f5ffd5b50610394601481565b348015610793575f5ffd5b506102d46107a2366004613447565b611eb8565b3480156107b2575f5ffd5b50610394600181565b3480156107c6575f5ffd5b506102516107d5366004613c72565b611ec3565b3480156107e5575f5ffd5b506102b06107f4366004613cbd565b6120f1565b610251610807366004613447565b61211e565b348015610817575f5ffd5b50610251610826366004613874565b6122ef565b600d6020525f9081526040902080546001820180546001600160a01b03909216929161085690613ce5565b80601f016020809104026020016040519081016040528092919081815260200182805461088290613ce5565b80156108cd5780601f106108a4576101008083540402835291602001916108cd565b820191905f5260205f20905b8154815290600101906020018083116108b057829003601f168201915b5050505050908060020180546108e290613ce5565b80601f016020809104026020016040519081016040528092919081815260200182805461090e90613ce5565b80156109595780601f1061093057610100808354040283529160200191610959565b820191905f5260205f20905b81548152906001019060200180831161093c57829003601f168201915b505050506003830154600484015460058501546006860154600787015460088801546009909801549697949693955060ff9092169390928a565b5f61099d82612329565b806109ac57506109ac82612349565b806109bb57506109bb82612398565b92915050565b60605f80546109cf90613ce5565b80601f01602080910402602001604051908101604052809291908181526020018280546109fb90613ce5565b8015610a465780601f10610a1d57610100808354040283529160200191610a46565b820191905f5260205f20905b815481529060010190602001808311610a2957829003601f168201915b5050505050905090565b335f908152600e602052604090205460ff16610aa65760405162461bcd60e51b815260206004820152601060248201526f12d650c81b9bdd081d995c9a599a595960821b60448201526064015b60405180910390fd5b5f835111610af65760405162461bcd60e51b815260206004820152601f60248201527f4174206c65617374206f6e65206d696c6573746f6e65207265717569726564006044820152606401610a9d565b8151835114610b475760405162461bcd60e51b815260206004820152601a60248201527f4d696c6573746f6e652064657461696c73206d69736d617463680000000000006044820152606401610a9d565b8051835114610b985760405162461bcd60e51b815260206004820152601e60248201527f4d696c6573746f6e652070657263656e7461676573206d69736d6174636800006044820152606401610a9d565b5f805b8251811015610bd357828181518110610bb657610bb6613d1d565b602002602001015182610bc99190613d45565b9150600101610b9b565b5080606414610c325760405162461bcd60e51b815260206004820152602560248201527f4d696c6573746f6e652070657263656e7461676573206d75737420746f74616c604482015264203130302560d81b6064820152608401610a9d565b610c40601380546001019055565b5f610c4a60135490565b5f818152600d6020526040902080546001600160a01b0319163317815590915060018101610c788a82613d9c565b5060028101610c878982613d9c565b50600381018790554260068201819055610ca5906212750090613d45565b600782015560058101805460ff191690555f5b8651811015610e4c575f604051806101000160405280898481518110610ce057610ce0613d1d565b60200260200101518152602001888481518110610cff57610cff613d1d565b60200260200101518152602001878481518110610d1e57610d1e613d1d565b602002602001015181526020016064888581518110610d3f57610d3f613d1d565b60200260200101518c610d529190613e56565b610d5c9190613e6d565b815260200160405180602001604052805f81525081526020015f6003811115610d8757610d8761348c565b81525f60208083018290526040909201819052600a8601805460018101825590825291902082519293508392600890920201908190610dc69082613d9c565b5060208201516001820190610ddb9082613d9c565b50604082015160028201556060820151600382015560808201516004820190610e049082613d9c565b5060a082015160058201805460ff19166001836003811115610e2857610e2861348c565b021790555060c0820151600682015560e09091015160079091015550600101610cb8565b50817f7585f467599d0f008985f231af99293be388626ac16ca59505c2f8f88969cd63338b604051610e7f929190613e8c565b60405180910390a2505050505050505050565b5f610e9c826123bc565b505f828152600460205260409020546001600160a01b03166109bb565b610ec48282336123f4565b5050565b600e6020525f90815260409020805460018201805460ff9092169291610eed90613ce5565b80601f0160208091040260200160405190810160405280929190818152602001828054610f1990613ce5565b8015610f645780601f10610f3b57610100808354040283529160200191610f64565b820191905f5260205f20905b815481529060010190602001808311610f4757829003601f168201915b5050505050908060020154905083565b5f838152600d60205260408120600a8101805491929185908110610f9a57610f9a613d1d565b5f91825260208083203384526010825260408085208a865290925292205460089091029091019150610ffc5760405162461bcd60e51b815260206004820152600b60248201526a2737ba1030903237b737b960a91b6044820152606401610a9d565b6001600582015460ff1660038111156110175761101761348c565b146110645760405162461bcd60e51b815260206004820152601760248201527f4d696c6573746f6e65206e6f74207375626d69747465640000000000000000006044820152606401610a9d565b335f908152601260209081526040808320888452825280832087845290915290205460ff16156110c65760405162461bcd60e51b815260206004820152600d60248201526c105b1c9958591e481d9bdd1959609a1b6044820152606401610a9d565b335f90815260126020908152604080832088845282528083208784529091529020805460ff1916600117905582156111505760058101805460ff191660021790556111118585612401565b847f939da3b627c123c81fe5aacebf925163337a0d4f8a03724640618078cad248948560405161114391815260200190565b60405180910390a26111be565b60058101805460ff191660031790556040805185815260208101829052600e918101919091526d111bdb9bdc881c995a9958dd195960921b606082015285907f2632a738857d774f3179abee0fa205787aea133c8f6d4cbfe4e605028d3e8230906080015b60405180910390a25b5050505050565b6001600160a01b0382166111ee57604051633250574960e11b81525f6004820152602401610a9d565b5f6111fa838333612554565b9050836001600160a01b0316816001600160a01b031614611248576040516364283d7b60e01b81526001600160a01b0380861660048301526024820184905282166044820152606401610a9d565b50505050565b5f611258836119e8565b82106112895760405163295f44f760e21b81526001600160a01b038416600482015260248101839052604401610a9d565b506001600160a01b03919091165f908152600660209081526040808320938352929052205490565b6112b96133db565b5f828152600d60209081526040918290208251610160810190935280546001600160a01b0316835260018101805491928401916112f590613ce5565b80601f016020809104026020016040519081016040528092919081815260200182805461132190613ce5565b801561136c5780601f106113435761010080835404028352916020019161136c565b820191905f5260205f20905b81548152906001019060200180831161134f57829003601f168201915b5050505050815260200160028201805461138590613ce5565b80601f01602080910402602001604051908101604052809291908181526020018280546113b190613ce5565b80156113fc5780601f106113d3576101008083540402835291602001916113fc565b820191905f5260205f20905b8154815290600101906020018083116113df57829003601f168201915b5050509183525050600382810154602083015260048301546040830152600583015460609092019160ff16908111156114375761143761348c565b60038111156114485761144861348c565b815260200160068201548152602001600782015481526020016008820154815260200160098201548152602001600a8201805480602002602001604051908101604052809291908181526020015f905b828210156116d3578382905f5260205f209060080201604051806101000160405290815f820180546114c990613ce5565b80601f01602080910402602001604051908101604052809291908181526020018280546114f590613ce5565b80156115405780601f1061151757610100808354040283529160200191611540565b820191905f5260205f20905b81548152906001019060200180831161152357829003601f168201915b5050505050815260200160018201805461155990613ce5565b80601f016020809104026020016040519081016040528092919081815260200182805461158590613ce5565b80156115d05780601f106115a7576101008083540402835291602001916115d0565b820191905f5260205f20905b8154815290600101906020018083116115b357829003601f168201915b5050505050815260200160028201548152602001600382015481526020016004820180546115fd90613ce5565b80601f016020809104026020016040519081016040528092919081815260200182805461162990613ce5565b80156116745780601f1061164b57610100808354040283529160200191611674565b820191905f5260205f20905b81548152906001019060200180831161165757829003601f168201915b5050509183525050600582015460209091019060ff16600381111561169b5761169b61348c565b60038111156116ac576116ac61348c565b81526020016006820154815260200160078201548152505081526020019060010190611498565b505050915250909392505050565b6116fb83838360405180602001604052805f815250611e19565b505050565b5f8151116117485760405162461bcd60e51b8152602060048201526015602482015274092dcecc2d8d2c840c8dec6eadacadce840d0c2e6d605b1b6044820152606401610a9d565b335f908152600e60205260409020805460ff191660019081178255810161176f8382613d9c565b5042600282015560405133907fcbd10c05d170a0368716429b8f44c3674382b4603d29d8e29049c62adb9d284f906117a8908590613575565b60405180910390a25050565b5f6117be60085490565b82106117e65760405163295f44f760e21b81525f600482015260248101839052604401610a9d565b600882815481106117f9576117f9613d1d565b905f5260205f2001549050919050565b611811612568565b5f818152600d602052604090206002600582015460ff1660038111156118395761183961348c565b148061187a57505f600582015460ff16600381111561185a5761185a61348c565b14801561186a5750806007015442115b801561187a575060148160080154105b6118c65760405162461bcd60e51b815260206004820181905260248201527f50726f706f73616c206e6f7420656c696769626c6520666f7220726566756e646044820152606401610a9d565b335f908152601060209081526040808320858452909152902054806119265760405162461bcd60e51b8152602060048201526016602482015275139bc8191bdb985d1a5bdb9cc81d1bc81c99599d5b9960521b6044820152606401610a9d565b335f8181526010602090815260408083208784529091528082208290555190919083908381818185875af1925050503d805f811461197f576040519150601f19603f3d011682016040523d82523d5f602084013e611984565b606091505b50509050806119ce5760405162461bcd60e51b81526020600482015260166024820152751499599d5b99081d1c985b9cd9995c8819985a5b195960521b6044820152606401610a9d565b5050506119db6001600c55565b50565b5f6109bb826123bc565b5f6001600160a01b038216611a12576040516322718ad960e21b81525f6004820152602401610a9d565b506001600160a01b03165f9081526003602052604090205490565b611a35612592565b611a3e5f6125bf565b565b60158181548110611a4f575f80fd5b5f91825260209091200154905081565b611a67612592565b6001600160a01b0383165f9081526011602052604090208115611aa15782815f015f828254611a969190613d45565b90915550611abf9050565b80548310611aaf575f611abc565b8054611abc908490613eaf565b81555b6112488185612610565b6060600180546109cf90613ce5565b610ec433838361269b565b5f828152600d6020526040902080546001600160a01b0316331480611b125750600b546001600160a01b031633145b80611b5257505f600582015460ff166003811115611b3257611b3261348c565b148015611b425750806007015442115b8015611b52575060148160080154105b80611bb557506001600582015460ff166003811115611b7357611b7361348c565b148015611bb557506212750081600a01826009015481548110611b9857611b98613d1d565b905f5260205f20906008020160060154611bb29190613d45565b42115b611bfa5760405162461bcd60e51b815260206004820152601660248201527510d85b9b9bdd0818d85b98d95b081c1c9bdc1bdcd85b60521b6044820152606401610a9d565b60058101805460ff1916600217905560405183907fc7c129e53e59dadfa16305619e80c7519f1f6912c10915359fd75b56bcecdd7b90611c3b908590613575565b60405180910390a2505050565b5f818152600d602052604090206007810154421115611ca15760405162461bcd60e51b8152602060048201526015602482015274159bdd1a5b99c81c195c9a5bd908195e1c1a5c9959605a1b6044820152606401610a9d565b335f908152600f6020908152604080832085845290915290205460ff1615611cfb5760405162461bcd60e51b815260206004820152600d60248201526c105b1c9958591e481d9bdd1959609a1b6044820152606401610a9d565b5f600582015460ff166003811115611d1557611d1561348c565b14611d625760405162461bcd60e51b815260206004820152601760248201527f496e76616c69642070726f706f73616c207374617475730000000000000000006044820152606401610a9d565b335f908152600f602090815260408083208584529091528120805460ff1916600117905560088201805491611d9683613ec2565b909155505060405133815282907f34647120636ce03d739347e28e9d1bdd34fd03d066ae60439fb1be2721ad16cd9060200160405180910390a26014816008015410610ec45760058101805460ff1916600117905560405182907f371f68adf986bef1a3b7917c0747454c6a25610192c30a1009ccc33dc90f3423905f90a25050565b611e248484846111c5565b6112483385858585612739565b611e39612592565b5f828152600d602052604090206008810182905560148210801590611e7557505f600582015460ff166003811115611e7357611e7361348c565b145b156116fb5760058101805460ff1916600117905560405183907f371f68adf986bef1a3b7917c0747454c6a25610192c30a1009ccc33dc90f3423905f90a2505050565b60606109bb82612860565b5f838152600d602052604090206001600582015460ff166003811115611eeb57611eeb61348c565b14611f2e5760405162461bcd60e51b815260206004820152601360248201527250726f706f73616c206e6f742061637469766560681b6044820152606401610a9d565b80546001600160a01b03163314611f875760405162461bcd60e51b815260206004820181905260248201527f4f6e6c792070726f706f73616c2063726561746f722063616e207375626d69746044820152606401610a9d565b80600901548314611fce5760405162461bcd60e51b8152602060048201526011602482015270496e76616c6964206d696c6573746f6e6560781b6044820152606401610a9d565b5f81600a018481548110611fe457611fe4613d1d565b905f5260205f20906008020190506212750082600a0183600901548154811061200f5761200f613d1d565b905f5260205f209060080201600601546120299190613d45565b4211156120845760405162461bcd60e51b8152602060048201526024808201527f4d696c6573746f6e65207375626d697373696f6e20646561646c696e652070616044820152631cdcd95960e21b6064820152608401610a9d565b600481016120928482613d9c565b5060058101805460ff1916600117905542600682018190556120b8906203f48090613d45565b600782015560405185907f556e3b296d5e8c8bab27684b52ae96905507befd2d188ce6f4453a6717dd9c00906111b59087908790613eda565b6001600160a01b039182165f90815260056020908152604080832093909416825291909152205460ff1690565b612126612568565b5f818152600d602052604090206001600582015460ff16600381111561214e5761214e61348c565b148061218157505f600582015460ff16600381111561216f5761216f61348c565b14801561218157506014816008015410155b6121cd5760405162461bcd60e51b815260206004820181905260248201527f50726f706f73616c206e6f7420726561647920666f7220646f6e6174696f6e736044820152606401610a9d565b80600301543482600401546121e29190613d45565b11156122285760405162461bcd60e51b8152602060048201526015602482015274119d5b991a5b99c819dbd85b08195e18d959591959605a1b6044820152606401610a9d565b5f600582015460ff1660038111156122425761224261348c565b036122575760058101805460ff191660011790555b335f90815260106020908152604080832085845290915281208054349290612280908490613d45565b9250508190555034816004015f82825461229a9190613d45565b909155506122aa90503334612963565b6040805133815234602082015283917ff8365d4d9099667b0e8a25091b48c493c5bc6e86ec76cff2edac212a8e776b40910160405180910390a2506119db6001600c55565b6122f7612592565b6001600160a01b03811661232057604051631e4fbdf760e01b81525f6004820152602401610a9d565b6119db816125bf565b5f6001600160e01b0319821663780e9d6360e01b14806109bb57506109bb825b5f6001600160e01b031982166380ac58cd60e01b148061237957506001600160e01b03198216635b5e139f60e01b145b806109bb57506301ffc9a760e01b6001600160e01b03198316146109bb565b5f6001600160e01b03198216632483248360e11b14806109bb57506109bb82612329565b5f818152600260205260408120546001600160a01b0316806109bb57604051637e27328960e01b815260048101849052602401610a9d565b6116fb83838360016129bc565b5f828152600d60205260408120600a810180549192918490811061242757612427613d1d565b5f9182526020822084546008929092020160038101546040519194506001600160a01b039092169290839083905f6040518083038185875af1925050503d805f811461248e576040519150601f19603f3d011682016040523d82523d5f602084013e612493565b606091505b50509050806124db5760405162461bcd60e51b8152602060048201526014602482015273119d5b99081d1c985b9cd9995c8819985a5b195960621b6044820152606401610a9d565b600985018054905f6124ec83613ec2565b9091555050600a8501546009860154106125105760058501805460ff191660031790555b604080518781526020810184905288917f32f00898ffc0a0efb5a059332f2cd7940e4e5d0822a940a102da96f8c14740ce910160405180910390a250505050505050565b5f612560848484612ac0565b949350505050565b6002600c540361258b57604051633ee5aeb560e01b815260040160405180910390fd5b6002600c55565b600b546001600160a01b03163314611a3e5760405163118cdaa760e01b8152336004820152602401610a9d565b600b80546001600160a01b038381166001600160a01b0319831681179093556040519116919082907f8be0079c531659141344cd1fd0a4f28419497f9722a3daafe3b4186f6b6457e0905f90a35050565b5f5b606461261f826001613d45565b6126299190613e56565b835410612642578061263a81613ec2565b915050612612565b826001015481146116fb57600183018190556040518181526001600160a01b038316907f91e51c29e7e87a74ad3b8ccba98538970f50a4309242735467f41e27c6b0fbac9060200160405180910390a26116fb82612b8b565b6001600160a01b0382166126cd57604051630b61174360e31b81526001600160a01b0383166004820152602401610a9d565b6001600160a01b038381165f81815260056020908152604080832094871680845294825291829020805460ff191686151590811790915591519182527f17307eab39ab6107e8899845ad3d59bd9653f200f220920489ca2b5937696c31910160405180910390a3505050565b6001600160a01b0383163b156111be57604051630a85bd0160e11b81526001600160a01b0384169063150b7a029061277b908890889087908790600401613ef2565b6020604051808303815f875af19250505080156127b5575060408051601f3d908101601f191682019092526127b291810190613f2e565b60015b61281c573d8080156127e2576040519150601f19603f3d011682016040523d82523d5f602084013e6127e7565b606091505b5080515f0361281457604051633250574960e11b81526001600160a01b0385166004820152602401610a9d565b805181602001fd5b6001600160e01b03198116630a85bd0160e11b1461285857604051633250574960e11b81526001600160a01b0385166004820152602401610a9d565b505050505050565b606061286b826123bc565b505f828152600a60205260408120805461288490613ce5565b80601f01602080910402602001604051908101604052809291908181526020018280546128b090613ce5565b80156128fb5780601f106128d2576101008083540402835291602001916128fb565b820191905f5260205f20905b8154815290600101906020018083116128de57829003601f168201915b505050505090505f61291760408051602081019091525f815290565b905080515f03612928575092915050565b81511561295a578082604051602001612942929190613f60565b60405160208183030381529060405292505050919050565b61256084612cfc565b6001600160a01b0382165f90815260116020526040812090600161298e662386f26fc1000085613e6d565b6129989190613e56565b905080825f015f8282546129ac9190613d45565b9091555061124890508285612610565b80806129d057506001600160a01b03821615155b15612a91575f6129df846123bc565b90506001600160a01b03831615801590612a0b5750826001600160a01b0316816001600160a01b031614155b8015612a1e5750612a1c81846120f1565b155b15612a475760405163a9fbf51f60e01b81526001600160a01b0384166004820152602401610a9d565b8115612a8f5783856001600160a01b0316826001600160a01b03167f8c5be1e5ebec7d5bd14f71427d1e84f3dd0314c0f7b2291e5b200ac8c7c3b92560405160405180910390a45b505b50505f90815260046020526040902080546001600160a01b0319166001600160a01b0392909216919091179055565b5f5f612acd858585612d6d565b90506001600160a01b038116612b2957612b2484600880545f838152600960205260408120829055600182018355919091527ff3f7a9fe364faab93b216da50a3214154f22a0a2b415b23a84c8169e8b636ee30155565b612b4c565b846001600160a01b0316816001600160a01b031614612b4c57612b4c8185612e5f565b6001600160a01b038516612b6857612b6384612edc565b612560565b846001600160a01b0316816001600160a01b031614612560576125608585612f83565b6001600160a01b0381165f908152601160205260408120905b6015548110156116fb5760158181548110612bc157612bc1613d1d565b905f5260205f2001548260010154148015612bfe5750612bfc8260158381548110612bee57612bee613d1d565b905f5260205f200154612fd1565b155b15612cf457612c11601480546001019055565b5f612c1b60145490565b9050612c27848261301f565b5f612c4c60158481548110612c3e57612c3e613d1d565b905f5260205f200154613038565b9050612c5882826130e9565b8360020160158481548110612c6f57612c6f613d1d565b5f9182526020808320909101548354600181018555938352912090910155601580546001600160a01b038716917f55144f84a06aba3b3a5c49b5d2d0d2a1fed9e25f465a2cc0f4a23b883c4782159185919087908110612cd157612cd1613d1d565b5f918252602091829020015460408051938452918301520160405180910390a250505b600101612ba4565b6060612d07826123bc565b505f612d1d60408051602081019091525f815290565b90505f815111612d3b5760405180602001604052805f815250612d66565b80612d4584613138565b604051602001612d56929190613f60565b6040516020818303038152906040525b9392505050565b5f828152600260205260408120546001600160a01b0390811690831615612d9957612d998184866131c7565b6001600160a01b03811615612dd357612db45f855f5f6129bc565b6001600160a01b0381165f90815260036020526040902080545f190190555b6001600160a01b03851615612e01576001600160a01b0385165f908152600360205260409020805460010190555b5f8481526002602052604080822080546001600160a01b0319166001600160a01b0389811691821790925591518793918516917fddf252ad1be2c89b69c2b068fc378daa952ba7f163c4a11628f55a4df523b3ef91a4949350505050565b5f612e69836119e8565b5f838152600760209081526040808320546001600160a01b0388168452600690925290912091925090818314612ebe575f83815260208281526040808320548584528184208190558352600790915290208290555b5f938452600760209081526040808620869055938552525081205550565b6008545f90612eed90600190613eaf565b5f8381526009602052604081205460088054939450909284908110612f1457612f14613d1d565b905f5260205f20015490508060088381548110612f3357612f33613d1d565b5f918252602080832090910192909255828152600990915260408082208490558582528120556008805480612f6a57612f6a613f74565b600190038181905f5260205f20015f9055905550505050565b5f6001612f8f846119e8565b612f999190613eaf565b6001600160a01b039093165f908152600660209081526040808320868452825280832085905593825260079052919091209190915550565b5f805b60028401548110156130165782846002018281548110612ff657612ff6613d1d565b905f5260205f2001540361300e5760019150506109bb565b600101612fd4565b505f9392505050565b610ec4828260405180602001604052805f81525061322b565b60608160010361306157604051806080016040528060428152602001613f896042913992915050565b816005036130885760405180608001604052806042815260200161400d6042913992915050565b81600a036130af5760405180608001604052806042815260200161404f6042913992915050565b81600f036130d657604051806080016040528060428152602001613fcb6042913992915050565b505060408051602081019091525f815290565b5f828152600a602052604090206131008282613d9c565b506040518281527ff8e1a15aba9398e019f0b49df1a4fde98ee17ae345cb5f6b5e2c27f5033e8ce79060200160405180910390a15050565b60605f61314483613242565b60010190505f816001600160401b0381111561316257613162613587565b6040519080825280601f01601f19166020018201604052801561318c576020820181803683370190505b5090508181016020015b5f19016f181899199a1a9b1b9c1cb0b131b232b360811b600a86061a8153600a850494508461319657509392505050565b6131d2838383613319565b6116fb576001600160a01b03831661320057604051637e27328960e01b815260048101829052602401610a9d565b60405163177e802f60e01b81526001600160a01b038316600482015260248101829052604401610a9d565b613235838361337a565b6116fb335f858585612739565b5f8072184f03e93ff9f4daa797ed6e38ed64bf6a1f0160401b83106132805772184f03e93ff9f4daa797ed6e38ed64bf6a1f0160401b830492506040015b6d04ee2d6d415b85acef810000000083106132ac576d04ee2d6d415b85acef8100000000830492506020015b662386f26fc1000083106132ca57662386f26fc10000830492506010015b6305f5e10083106132e2576305f5e100830492506008015b61271083106132f657612710830492506004015b60648310613308576064830492506002015b600a83106109bb5760010192915050565b5f6001600160a01b038316158015906125605750826001600160a01b0316846001600160a01b03161480613352575061335284846120f1565b806125605750505f908152600460205260409020546001600160a01b03908116911614919050565b6001600160a01b0382166133a357604051633250574960e11b81525f6004820152602401610a9d565b5f6133af83835f612554565b90506001600160a01b038116156116fb576040516339e3563760e11b81525f6004820152602401610a9d565b6040518061016001604052805f6001600160a01b0316815260200160608152602001606081526020015f81526020015f81526020015f60038111156134225761342261348c565b81526020015f81526020015f81526020015f81526020015f8152602001606081525090565b5f60208284031215613457575f5ffd5b5035919050565b5f81518084528060208401602086015e5f602082860101526020601f19601f83011685010191505092915050565b634e487b7160e01b5f52602160045260245ffd5b600481106119db57634e487b7160e01b5f52602160045260245ffd5b6134c5816134a0565b9052565b6001600160a01b038b168152610140602082018190525f906134ed9083018c61345e565b82810360408401526134ff818c61345e565b915050886060830152876080830152613517876134a0565b60a082019690965260c081019490945260e08401929092526101008301526101209091015295945050505050565b6001600160e01b0319811681146119db575f5ffd5b5f6020828403121561356a575f5ffd5b8135612d6681613545565b602081525f612d66602083018461345e565b634e487b7160e01b5f52604160045260245ffd5b604051601f8201601f191681016001600160401b03811182821017156135c3576135c3613587565b604052919050565b5f5f6001600160401b038411156135e4576135e4613587565b50601f8301601f19166020016135f98161359b565b91505082815283838301111561360d575f5ffd5b828260208301375f602084830101529392505050565b5f82601f830112613632575f5ffd5b612d66838335602085016135cb565b5f6001600160401b0382111561365957613659613587565b5060051b60200190565b5f82601f830112613672575f5ffd5b813561368561368082613641565b61359b565b8082825260208201915060208360051b8601019250858311156136a6575f5ffd5b602085015b838110156136e65780356001600160401b038111156136c8575f5ffd5b6136d7886020838a0101613623565b845250602092830192016136ab565b5095945050505050565b5f82601f8301126136ff575f5ffd5b813561370d61368082613641565b8082825260208201915060208360051b86010192508583111561372e575f5ffd5b602085015b838110156136e6578035835260209283019201613733565b5f5f5f5f5f5f60c08789031215613760575f5ffd5b86356001600160401b03811115613775575f5ffd5b61378189828a01613623565b96505060208701356001600160401b0381111561379c575f5ffd5b6137a889828a01613623565b9550506040870135935060608701356001600160401b038111156137ca575f5ffd5b6137d689828a01613663565b93505060808701356001600160401b038111156137f1575f5ffd5b6137fd89828a01613663565b92505060a08701356001600160401b03811115613818575f5ffd5b61382489828a016136f0565b9150509295509295509295565b80356001600160a01b0381168114613847575f5ffd5b919050565b5f5f6040838503121561385d575f5ffd5b61386683613831565b946020939093013593505050565b5f60208284031215613884575f5ffd5b612d6682613831565b8315158152606060208201525f6138a7606083018561345e565b9050826040830152949350505050565b80358015158114613847575f5ffd5b5f5f5f606084860312156138d8575f5ffd5b83359250602084013591506138ef604085016138b7565b90509250925092565b5f5f5f6060848603121561390a575f5ffd5b61391384613831565b925061392160208501613831565b929592945050506040919091013590565b5f82825180855260208501945060208160051b830101602085015f5b838110156139fb57601f1985840301885281518051610100855261397661010086018261345e565b90506020820151858203602087015261398f828261345e565b9150506040820151604086015260608201516060860152608082015185820360808701526139bd828261345e565b91505060a08201516139d260a08701826134bc565b5060c0828101519086015260e0918201519190940152602097880197919091019060010161394e565b50909695505050505050565b60208152613a216020820183516001600160a01b03169052565b5f60208301516101606040840152613a3d61018084018261345e565b90506040840151601f19848303016060850152613a5a828261345e565b91505060608401516080840152608084015160a084015260a0840151613a8360c08501826134bc565b5060c084015160e084015260e0840151610100840152610100840151610120840152610120840151610140840152610140840151601f1984830301610160850152613ace8282613932565b95945050505050565b5f60208284031215613ae7575f5ffd5b81356001600160401b03811115613afc575f5ffd5b61256084828501613623565b5f5f5f60608486031215613b1a575f5ffd5b613b2384613831565b95602085013595506040909401359392505050565b5f5f5f60608486031215613b4a575f5ffd5b613b5384613831565b9250602084013591506138ef604085016138b7565b5f5f60408385031215613b79575f5ffd5b613b8283613831565b9150613b90602084016138b7565b90509250929050565b5f5f60408385031215613baa575f5ffd5b8235915060208301356001600160401b03811115613bc6575f5ffd5b613bd285828601613623565b9150509250929050565b5f5f5f5f60808587031215613bef575f5ffd5b613bf885613831565b9350613c0660208601613831565b92506040850135915060608501356001600160401b03811115613c27575f5ffd5b8501601f81018713613c37575f5ffd5b613c46878235602084016135cb565b91505092959194509250565b5f5f60408385031215613c63575f5ffd5b50508035926020909101359150565b5f5f5f60608486031215613c84575f5ffd5b833592506020840135915060408401356001600160401b03811115613ca7575f5ffd5b613cb386828701613623565b9150509250925092565b5f5f60408385031215613cce575f5ffd5b613cd783613831565b9150613b9060208401613831565b600181811c90821680613cf957607f821691505b602082108103613d1757634e487b7160e01b5f52602260045260245ffd5b50919050565b634e487b7160e01b5f52603260045260245ffd5b634e487b7160e01b5f52601160045260245ffd5b808201808211156109bb576109bb613d31565b601f8211156116fb57805f5260205f20601f840160051c81016020851015613d7d5750805b601f840160051c820191505b818110156111be575f8155600101613d89565b81516001600160401b03811115613db557613db5613587565b613dc981613dc38454613ce5565b84613d58565b6020601f821160018114613dfb575f8315613de45750848201515b5f19600385901b1c1916600184901b1784556111be565b5f84815260208120601f198516915b82811015613e2a5787850151825560209485019460019092019101613e0a565b5084821015613e4757868401515f19600387901b60f8161c191681555b50505050600190811b01905550565b80820281158282048414176109bb576109bb613d31565b5f82613e8757634e487b7160e01b5f52601260045260245ffd5b500490565b6001600160a01b03831681526040602082018190525f906125609083018461345e565b818103818111156109bb576109bb613d31565b5f60018201613ed357613ed3613d31565b5060010190565b828152604060208201525f612560604083018461345e565b6001600160a01b03858116825284166020820152604081018390526080606082018190525f90613f249083018461345e565b9695505050505050565b5f60208284031215613f3e575f5ffd5b8151612d6681613545565b5f81518060208401855e5f93019283525090919050565b5f612560613f6e8386613f49565b84613f49565b634e487b7160e01b5f52603160045260245ffdfe697066733a2f2f6261666b72656961727062367275796666677674666b37646435376276677a35726769356a737235626b776f6934686c6275326e623536736e7669697066733a2f2f6261666b7265696763796d6761666f6d6f327a6a737663787a6b346f32776e7974796b3761623378367333736c77366f7a79753676787235766b75697066733a2f2f6261666b726569636f70657a756c77626a6a7078327a637073757a65666974666773776e6277656370356971683673337a6d69773772656a666e61697066733a2f2f6261666b726569636332776e61746a7a6b3570336c64663633376d7470627a61637362336b6a73646c646861326d6d6e373672656a7a3662656171a264697066735822122071dc5a15822ec69bf034aee64c02fd1d9783e79eaa92eba718f8721964c84c8864736f6c634300081c0033","linkReferences":{}},"methodIdentifiers":{"MILESTONE_APPROVAL_PERIOD()":"8acd2fe7","MILESTONE_SUBMISSION_PERIOD()":"e12ae951","NFT_MILESTONE_LEVELS(uint256)":"870a08f0","VOTES_REQUIRED()":"c4d665f1","VOTING_PERIOD()":"b1610d7e","XP_LEVEL_THRESHOLD()":"4a0d5b77","XP_PER_ETH()":"d8353915","adjustProposalTotalVotes(uint256,uint256)":"c172b829","adjustUserExperience(address,uint256,bool)":"8b1260ea","approve(address,uint256)":"095ea7b3","approveMilestone(uint256,uint256,bool)":"20337a4d","balanceOf(address)":"70a08231","cancelProposal(uint256,string)":"a351f615","createProposal(string,string,uint256,string[],string[],uint256[])":"07960d93","donate(uint256)":"f14faf6f","getApproved(uint256)":"081812fc","getProposalDetails(uint256)":"3b4d01a7","getUserProfile(address)":"987ee156","hasVoted(address,uint256)":"42545825","isApprovedForAll(address,address)":"e985e9c5","kycVerifications(address)":"0e4d1d3f","milestoneApprovals(address,uint256,uint256)":"65a28540","name()":"06fdde03","owner()":"8da5cb5b","ownerOf(uint256)":"6352211e","proposals(uint256)":"013cf08b","refundDonors(uint256)":"608bdc08","renounceOwnership()":"715018a6","safeTransferFrom(address,address,uint256)":"42842e0e","safeTransferFrom(address,address,uint256,bytes)":"b88d4fde","setApprovalForAll(address,bool)":"a22cb465","submitKYC(string)":"453ae3cf","submitMilestoneDocument(uint256,uint256,string)":"dd87fc2e","supportsInterface(bytes4)":"01ffc9a7","symbol()":"95d89b41","tokenByIndex(uint256)":"4f6ccce7","tokenOfOwnerByIndex(address,uint256)":"2f745c59","tokenURI(uint256)":"c87b56dd","totalSupply()":"18160ddd","transferFrom(address,address,uint256)":"23b872dd","transferOwnership(address)":"f2fde38b","userDonations(address,uint256)":"4933e631","userProfiles(address)":"332d56d7","voteOnProposal(uint256)":"add68edc"},"id":41}