{"abi":[{"type":"constructor","inputs":[],"stateMutability":"nonpayable"},{"type":"fallback","stateMutability":"payable"},{"type":"receive","stateMutability":"payable"},{"type":"function","name":"MILESTONE_APPROVAL_PERIOD","inputs":[],"outputs":[{"name":"","type":"uint256","internalType":"uint256"}],"stateMutability":"view"},{"type":"function","name":"MILESTONE_SUBMISSION_PERIOD","inputs":[],"outputs":[{"name":"","type":"uint256","internalType":"uint256"}],"stateMutability":"view"},{"type":"function","name":"NFT_MILESTONE_LEVELS","inputs":[{"name":"","type":"uint256","internalType":"uint256"}],"outputs":[{"name":"","type":"uint256","internalType":"uint256"}],"stateMutability":"view"},{"type":"function","name":"VOTES_REQUIRED","inputs":[],"outputs":[{"name":"","type":"uint256","internalType":"uint256"}],"stateMutability":"view"},{"type":"function","name":"VOTING_PERIOD","inputs":[],"outputs":[{"name":"","type":"uint256","internalType":"uint256"}],"stateMutability":"view"},{"type":"function","name":"XP_LEVEL_THRESHOLD","inputs":[],"outputs":[{"name":"","type":"uint256","internalType":"uint256"}],"stateMutability":"view"},{"type":"function","name":"XP_PER_ETH","inputs":[],"outputs":[{"name":"","type":"uint256","internalType":"uint256"}],"stateMutability":"view"},{"type":"function","name":"approve","inputs":[{"name":"to","type":"address","internalType":"address"},{"name":"tokenId","type":"uint256","internalType":"uint256"}],"outputs":[],"stateMutability":"nonpayable"},{"type":"function","name":"approveMilestone","inputs":[{"name":"_proposalId","type":"uint256","internalType":"uint256"},{"name":"_milestoneIndex","type":"uint256","internalType":"uint256"},{"name":"_approve","type":"bool","internalType":"bool"}],"outputs":[],"stateMutability":"nonpayable"},{"type":"function","name":"balanceOf","inputs":[{"name":"owner","type":"address","internalType":"address"}],"outputs":[{"name":"","type":"uint256","internalType":"uint256"}],"stateMutability":"view"},{"type":"function","name":"cancelProposal","inputs":[{"name":"_proposalId","type":"uint256","internalType":"uint256"},{"name":"_reason","type":"string","internalType":"string"}],"outputs":[],"stateMutability":"nonpayable"},{"type":"function","name":"createProposal","inputs":[{"name":"_title","type":"string","internalType":"string"},{"name":"_description","type":"string","internalType":"string"},{"name":"_fundingGoal","type":"uint256","internalType":"uint256"},{"name":"_milestonesTitles","type":"string[]","internalType":"string[]"},{"name":"_milestonesDescriptions","type":"string[]","internalType":"string[]"},{"name":"_milestonePercentages","type":"uint256[]","internalType":"uint256[]"}],"outputs":[],"stateMutability":"nonpayable"},{"type":"function","name":"donate","inputs":[{"name":"_proposalId","type":"uint256","internalType":"uint256"}],"outputs":[],"stateMutability":"payable"},{"type":"function","name":"getApproved","inputs":[{"name":"tokenId","type":"uint256","internalType":"uint256"}],"outputs":[{"name":"","type":"address","internalType":"address"}],"stateMutability":"view"},{"type":"function","name":"getProposalDetails","inputs":[{"name":"_proposalId","type":"uint256","internalType":"uint256"}],"outputs":[{"name":"","type":"tuple","internalType":"struct DecentralizedFundraisingPlatform.Proposal","components":[{"name":"creator","type":"address","internalType":"address"},{"name":"title","type":"string","internalType":"string"},{"name":"description","type":"string","internalType":"string"},{"name":"fundingGoal","type":"uint256","internalType":"uint256"},{"name":"totalRaised","type":"uint256","internalType":"uint256"},{"name":"status","type":"uint8","internalType":"enum DecentralizedFundraisingPlatform.ProposalStatus"},{"name":"creationTime","type":"uint256","internalType":"uint256"},{"name":"votingDeadline","type":"uint256","internalType":"uint256"},{"name":"totalVotes","type":"uint256","internalType":"uint256"},{"name":"currentMilestone","type":"uint256","internalType":"uint256"},{"name":"milestones","type":"tuple[]","internalType":"struct DecentralizedFundraisingPlatform.Milestone[]","components":[{"name":"title","type":"string","internalType":"string"},{"name":"description","type":"string","internalType":"string"},{"name":"percentage","type":"uint256","internalType":"uint256"},{"name":"fundsAllocated","type":"uint256","internalType":"uint256"},{"name":"documentHash","type":"string","internalType":"string"},{"name":"status","type":"uint8","internalType":"enum DecentralizedFundraisingPlatform.MilestoneStatus"},{"name":"submissionTime","type":"uint256","internalType":"uint256"},{"name":"approvalDeadline","type":"uint256","internalType":"uint256"}]}]}],"stateMutability":"view"},{"type":"function","name":"getUserProfile","inputs":[{"name":"_user","type":"address","internalType":"address"}],"outputs":[{"name":"experiencePoints","type":"uint256","internalType":"uint256"},{"name":"level","type":"uint256","internalType":"uint256"}],"stateMutability":"view"},{"type":"function","name":"hasVoted","inputs":[{"name":"","type":"address","internalType":"address"},{"name":"","type":"uint256","internalType":"uint256"}],"outputs":[{"name":"","type":"bool","internalType":"bool"}],"stateMutability":"view"},{"type":"function","name":"isApprovedForAll","inputs":[{"name":"owner","type":"address","internalType":"address"},{"name":"operator","type":"address","internalType":"address"}],"outputs":[{"name":"","type":"bool","internalType":"bool"}],"stateMutability":"view"},{"type":"function","name":"kycVerifications","inputs":[{"name":"","type":"address","internalType":"address"}],"outputs":[{"name":"isVerified","type":"bool","internalType":"bool"},{"name":"documentHash","type":"string","internalType":"string"},{"name":"verificationTimestamp","type":"uint256","internalType":"uint256"}],"stateMutability":"view"},{"type":"function","name":"milestoneApprovals","inputs":[{"name":"","type":"address","internalType":"address"},{"name":"","type":"uint256","internalType":"uint256"},{"name":"","type":"uint256","internalType":"uint256"}],"outputs":[{"name":"","type":"bool","internalType":"bool"}],"stateMutability":"view"},{"type":"function","name":"name","inputs":[],"outputs":[{"name":"","type":"string","internalType":"string"}],"stateMutability":"view"},{"type":"function","name":"owner","inputs":[],"outputs":[{"name":"","type":"address","internalType":"address"}],"stateMutability":"view"},{"type":"function","name":"ownerOf","inputs":[{"name":"tokenId","type":"uint256","internalType":"uint256"}],"outputs":[{"name":"","type":"address","internalType":"address"}],"stateMutability":"view"},{"type":"function","name":"proposals","inputs":[{"name":"","type":"uint256","internalType":"uint256"}],"outputs":[{"name":"creator","type":"address","internalType":"address"},{"name":"title","type":"string","internalType":"string"},{"name":"description","type":"string","internalType":"string"},{"name":"fundingGoal","type":"uint256","internalType":"uint256"},{"name":"totalRaised","type":"uint256","internalType":"uint256"},{"name":"status","type":"uint8","internalType":"enum DecentralizedFundraisingPlatform.ProposalStatus"},{"name":"creationTime","type":"uint256","internalType":"uint256"},{"name":"votingDeadline","type":"uint256","internalType":"uint256"},{"name":"totalVotes","type":"uint256","internalType":"uint256"},{"name":"currentMilestone","type":"uint256","internalType":"uint256"}],"stateMutability":"view"},{"type":"function","name":"refundDonors","inputs":[{"name":"_proposalId","type":"uint256","internalType":"uint256"}],"outputs":[],"stateMutability":"nonpayable"},{"type":"function","name":"renounceOwnership","inputs":[],"outputs":[],"stateMutability":"nonpayable"},{"type":"function","name":"safeTransferFrom","inputs":[{"name":"from","type":"address","internalType":"address"},{"name":"to","type":"address","internalType":"address"},{"name":"tokenId","type":"uint256","internalType":"uint256"}],"outputs":[],"stateMutability":"nonpayable"},{"type":"function","name":"safeTransferFrom","inputs":[{"name":"from","type":"address","internalType":"address"},{"name":"to","type":"address","internalType":"address"},{"name":"tokenId","type":"uint256","internalType":"uint256"},{"name":"data","type":"bytes","internalType":"bytes"}],"outputs":[],"stateMutability":"nonpayable"},{"type":"function","name":"setApprovalForAll","inputs":[{"name":"operator","type":"address","internalType":"address"},{"name":"approved","type":"bool","internalType":"bool"}],"outputs":[],"stateMutability":"nonpayable"},{"type":"function","name":"submitKYC","inputs":[{"name":"_documentHash","type":"string","internalType":"string"}],"outputs":[],"stateMutability":"nonpayable"},{"type":"function","name":"submitMilestoneDocument","inputs":[{"name":"_proposalId","type":"uint256","internalType":"uint256"},{"name":"_milestoneIndex","type":"uint256","internalType":"uint256"},{"name":"_documentHash","type":"string","internalType":"string"}],"outputs":[],"stateMutability":"nonpayable"},{"type":"function","name":"supportsInterface","inputs":[{"name":"interfaceId","type":"bytes4","internalType":"bytes4"}],"outputs":[{"name":"","type":"bool","internalType":"bool"}],"stateMutability":"view"},{"type":"function","name":"symbol","inputs":[],"outputs":[{"name":"","type":"string","internalType":"string"}],"stateMutability":"view"},{"type":"function","name":"tokenByIndex","inputs":[{"name":"index","type":"uint256","internalType":"uint256"}],"outputs":[{"name":"","type":"uint256","internalType":"uint256"}],"stateMutability":"view"},{"type":"function","name":"tokenOfOwnerByIndex","inputs":[{"name":"owner","type":"address","internalType":"address"},{"name":"index","type":"uint256","internalType":"uint256"}],"outputs":[{"name":"","type":"uint256","internalType":"uint256"}],"stateMutability":"view"},{"type":"function","name":"tokenURI","inputs":[{"name":"tokenId","type":"uint256","internalType":"uint256"}],"outputs":[{"name":"","type":"string","internalType":"string"}],"stateMutability":"view"},{"type":"function","name":"totalSupply","inputs":[],"outputs":[{"name":"","type":"uint256","internalType":"uint256"}],"stateMutability":"view"},{"type":"function","name":"transferFrom","inputs":[{"name":"from","type":"address","internalType":"address"},{"name":"to","type":"address","internalType":"address"},{"name":"tokenId","type":"uint256","internalType":"uint256"}],"outputs":[],"stateMutability":"nonpayable"},{"type":"function","name":"transferOwnership","inputs":[{"name":"newOwner","type":"address","internalType":"address"}],"outputs":[],"stateMutability":"nonpayable"},{"type":"function","name":"userDonations","inputs":[{"name":"","type":"address","internalType":"address"},{"name":"","type":"uint256","internalType":"uint256"}],"outputs":[{"name":"","type":"uint256","internalType":"uint256"}],"stateMutability":"view"},{"type":"function","name":"userProfiles","inputs":[{"name":"","type":"address","internalType":"address"}],"outputs":[{"name":"experiencePoints","type":"uint256","internalType":"uint256"},{"name":"level","type":"uint256","internalType":"uint256"}],"stateMutability":"view"},{"type":"function","name":"voteOnProposal","inputs":[{"name":"_proposalId","type":"uint256","internalType":"uint256"}],"outputs":[],"stateMutability":"nonpayable"},{"type":"event","name":"Approval","inputs":[{"name":"owner","type":"address","indexed":true,"internalType":"address"},{"name":"approved","type":"address","indexed":true,"internalType":"address"},{"name":"tokenId","type":"uint256","indexed":true,"internalType":"uint256"}],"anonymous":false},{"type":"event","name":"ApprovalForAll","inputs":[{"name":"owner","type":"address","indexed":true,"internalType":"address"},{"name":"operator","type":"address","indexed":true,"internalType":"address"},{"name":"approved","type":"bool","indexed":false,"internalType":"bool"}],"anonymous":false},{"type":"event","name":"Donation","inputs":[{"name":"proposalId","type":"uint256","indexed":true,"internalType":"uint256"},{"name":"donor","type":"address","indexed":false,"internalType":"address"},{"name":"amount","type":"uint256","indexed":false,"internalType":"uint256"}],"anonymous":false},{"type":"event","name":"FundReleased","inputs":[{"name":"proposalId","type":"uint256","indexed":true,"internalType":"uint256"},{"name":"milestoneIndex","type":"uint256","indexed":false,"internalType":"uint256"},{"name":"amount","type":"uint256","indexed":false,"internalType":"uint256"}],"anonymous":false},{"type":"event","name":"KYCVerified","inputs":[{"name":"user","type":"address","indexed":true,"internalType":"address"},{"name":"documentHash","type":"string","indexed":false,"internalType":"string"}],"anonymous":false},{"type":"event","name":"LevelUp","inputs":[{"name":"user","type":"address","indexed":true,"internalType":"address"},{"name":"newLevel","type":"uint256","indexed":false,"internalType":"uint256"}],"anonymous":false},{"type":"event","name":"MilestoneApproved","inputs":[{"name":"proposalId","type":"uint256","indexed":true,"internalType":"uint256"},{"name":"milestoneIndex","type":"uint256","indexed":false,"internalType":"uint256"}],"anonymous":false},{"type":"event","name":"MilestoneRejected","inputs":[{"name":"proposalId","type":"uint256","indexed":true,"internalType":"uint256"},{"name":"milestoneIndex","type":"uint256","indexed":false,"internalType":"uint256"},{"name":"reason","type":"string","indexed":false,"internalType":"string"}],"anonymous":false},{"type":"event","name":"MilestoneSubmitted","inputs":[{"name":"proposalId","type":"uint256","indexed":true,"internalType":"uint256"},{"name":"milestoneIndex","type":"uint256","indexed":false,"internalType":"uint256"},{"name":"documentHash","type":"string","indexed":false,"internalType":"string"}],"anonymous":false},{"type":"event","name":"NFTAwarded","inputs":[{"name":"user","type":"address","indexed":true,"internalType":"address"},{"name":"tokenId","type":"uint256","indexed":false,"internalType":"uint256"},{"name":"level","type":"uint256","indexed":false,"internalType":"uint256"}],"anonymous":false},{"type":"event","name":"OwnershipTransferred","inputs":[{"name":"previousOwner","type":"address","indexed":true,"internalType":"address"},{"name":"newOwner","type":"address","indexed":true,"internalType":"address"}],"anonymous":false},{"type":"event","name":"ProposalActivated","inputs":[{"name":"proposalId","type":"uint256","indexed":true,"internalType":"uint256"}],"anonymous":false},{"type":"event","name":"ProposalCancelled","inputs":[{"name":"proposalId","type":"uint256","indexed":true,"internalType":"uint256"},{"name":"reason","type":"string","indexed":false,"internalType":"string"}],"anonymous":false},{"type":"event","name":"ProposalCreated","inputs":[{"name":"proposalId","type":"uint256","indexed":true,"internalType":"uint256"},{"name":"creator","type":"address","indexed":false,"internalType":"address"},{"name":"title","type":"string","indexed":false,"internalType":"string"}],"anonymous":false},{"type":"event","name":"ProposalVoted","inputs":[{"name":"proposalId","type":"uint256","indexed":true,"internalType":"uint256"},{"name":"voter","type":"address","indexed":false,"internalType":"address"}],"anonymous":false},{"type":"event","name":"Transfer","inputs":[{"name":"from","type":"address","indexed":true,"internalType":"address"},{"name":"to","type":"address","indexed":true,"internalType":"address"},{"name":"tokenId","type":"uint256","indexed":true,"internalType":"uint256"}],"anonymous":false},{"type":"error","name":"ERC721EnumerableForbiddenBatchMint","inputs":[]},{"type":"error","name":"ERC721IncorrectOwner","inputs":[{"name":"sender","type":"address","internalType":"address"},{"name":"tokenId","type":"uint256","internalType":"uint256"},{"name":"owner","type":"address","internalType":"address"}]},{"type":"error","name":"ERC721InsufficientApproval","inputs":[{"name":"operator","type":"address","internalType":"address"},{"name":"tokenId","type":"uint256","internalType":"uint256"}]},{"type":"error","name":"ERC721InvalidApprover","inputs":[{"name":"approver","type":"address","internalType":"address"}]},{"type":"error","name":"ERC721InvalidOperator","inputs":[{"name":"operator","type":"address","internalType":"address"}]},{"type":"error","name":"ERC721InvalidOwner","inputs":[{"name":"owner","type":"address","internalType":"address"}]},{"type":"error","name":"ERC721InvalidReceiver","inputs":[{"name":"receiver","type":"address","internalType":"address"}]},{"type":"error","name":"ERC721InvalidSender","inputs":[{"name":"sender","type":"address","internalType":"address"}]},{"type":"error","name":"ERC721NonexistentToken","inputs":[{"name":"tokenId","type":"uint256","internalType":"uint256"}]},{"type":"error","name":"ERC721OutOfBoundsIndex","inputs":[{"name":"owner","type":"address","internalType":"address"},{"name":"index","type":"uint256","internalType":"uint256"}]},{"type":"error","name":"OwnableInvalidOwner","inputs":[{"name":"owner","type":"address","internalType":"address"}]},{"type":"error","name":"OwnableUnauthorizedAccount","inputs":[{"name":"account","type":"address","internalType":"address"}]},{"type":"error","name":"ReentrancyGuardReentrantCall","inputs":[]}],"bytecode":{"object":"0x60806040526040518060800160405280600160ff168152602001600560ff168152602001600a60ff168152602001600f60ff168152506014906004610045929190610230565b50348015610051575f5ffd5b50336040518060400160405280600d81526020017f46756e647261697365724e4654000000000000000000000000000000000000008152506040518060400160405280600481526020017f464e465400000000000000000000000000000000000000000000000000000000815250815f90816100cd91906104d8565b5080600190816100dd91906104d8565b5050505f73ffffffffffffffffffffffffffffffffffffffff168173ffffffffffffffffffffffffffffffffffffffff1603610150575f6040517f1e4fbdf700000000000000000000000000000000000000000000000000000000815260040161014791906105e6565b60405180910390fd5b61015f8161016d60201b60201c565b506001600b819055506105ff565b5f600a5f9054906101000a900473ffffffffffffffffffffffffffffffffffffffff16905081600a5f6101000a81548173ffffffffffffffffffffffffffffffffffffffff021916908373ffffffffffffffffffffffffffffffffffffffff1602179055508173ffffffffffffffffffffffffffffffffffffffff168173ffffffffffffffffffffffffffffffffffffffff167f8be0079c531659141344cd1fd0a4f28419497f9722a3daafe3b4186f6b6457e060405160405180910390a35050565b828054828255905f5260205f2090810192821561026f579160200282015b8281111561026e578251829060ff1690559160200191906001019061024e565b5b50905061027c9190610280565b5090565b5b80821115610297575f815f905550600101610281565b5090565b5f81519050919050565b7f4e487b71000000000000000000000000000000000000000000000000000000005f52604160045260245ffd5b7f4e487b71000000000000000000000000000000000000000000000000000000005f52602260045260245ffd5b5f600282049050600182168061031657607f821691505b602082108103610329576103286102d2565b5b50919050565b5f819050815f5260205f209050919050565b5f6020601f8301049050919050565b5f82821b905092915050565b5f6008830261038b7fffffffffffffffffffffffffffffffffffffffffffffffffffffffffffffffff82610350565b6103958683610350565b95508019841693508086168417925050509392505050565b5f819050919050565b5f819050919050565b5f6103d96103d46103cf846103ad565b6103b6565b6103ad565b9050919050565b5f819050919050565b6103f2836103bf565b6104066103fe826103e0565b84845461035c565b825550505050565b5f5f905090565b61041d61040e565b6104288184846103e9565b505050565b5b8181101561044b576104405f82610415565b60018101905061042e565b5050565b601f821115610490576104618161032f565b61046a84610341565b81016020851015610479578190505b61048d61048585610341565b83018261042d565b50505b505050565b5f82821c905092915050565b5f6104b05f1984600802610495565b1980831691505092915050565b5f6104c883836104a1565b9150826002028217905092915050565b6104e18261029b565b67ffffffffffffffff8111156104fa576104f96102a5565b5b61050482546102ff565b61050f82828561044f565b5f60209050601f831160018114610540575f841561052e578287015190505b61053885826104bd565b86555061059f565b601f19841661054e8661032f565b5f5b8281101561057557848901518255600182019150602085019450602081019050610550565b86831015610592578489015161058e601f8916826104a1565b8355505b6001600288020188555050505b505050505050565b5f73ffffffffffffffffffffffffffffffffffffffff82169050919050565b5f6105d0826105a7565b9050919050565b6105e0816105c6565b82525050565b5f6020820190506105f95f8301846105d7565b92915050565b6164d58061060c5f395ff3fe608060405260043610610254575f3560e01c806365a2854011610138578063add68edc116100b5578063d835391511610079578063d835391514610942578063dd87fc2e1461096c578063e12ae95114610994578063e985e9c5146109be578063f14faf6f146109fa578063f2fde38b14610a1657610255565b8063add68edc14610862578063b1610d7e1461088a578063b88d4fde146108b4578063c4d665f1146108dc578063c87b56dd1461090657610255565b80638da5cb5b116100fc5780638da5cb5b1461078157806395d89b41146107ab578063987ee156146107d5578063a22cb46514610812578063a351f6151461083a57610255565b806365a285401461068d57806370a08231146106c9578063715018a614610705578063870a08f01461071b5780638acd2fe71461075757610255565b80632f745c59116101d1578063453ae3cf11610195578063453ae3cf1461055f5780634933e631146105875780634a0d5b77146105c35780634f6ccce7146105ed578063608bdc08146106295780636352211e1461065157610255565b80632f745c5914610446578063332d56d7146104825780633b4d01a7146104bf57806342545825146104fb57806342842e0e1461053757610255565b8063095ea7b311610218578063095ea7b3146103665780630e4d1d3f1461038e57806318160ddd146103cc57806320337a4d146103f657806323b872dd1461041e57610255565b8063013cf08b1461025757806301ffc9a71461029c57806306fdde03146102d857806307960d9314610302578063081812fc1461032a57610255565b5b005b348015610262575f5ffd5b5061027d60048036038101906102789190614598565b610a3e565b6040516102939a999897969594939291906146f4565b60405180910390f35b3480156102a7575f5ffd5b506102c260048036038101906102bd91906147f1565b610bc5565b6040516102cf9190614836565b60405180910390f35b3480156102e3575f5ffd5b506102ec610c3e565b6040516102f9919061484f565b60405180910390f35b34801561030d575f5ffd5b5061032860048036038101906103239190614b3d565b610ccd565b005b348015610335575f5ffd5b50610350600480360381019061034b9190614598565b611191565b60405161035d9190614c52565b60405180910390f35b348015610371575f5ffd5b5061038c60048036038101906103879190614c95565b6111ac565b005b348015610399575f5ffd5b506103b460048036038101906103af9190614cd3565b6111c2565b6040516103c393929190614cfe565b60405180910390f35b3480156103d7575f5ffd5b506103e061127a565b6040516103ed9190614d3a565b60405180910390f35b348015610401575f5ffd5b5061041c60048036038101906104179190614d7d565b611286565b005b348015610429575f5ffd5b50610444600480360381019061043f9190614dcd565b6115c4565b005b348015610451575f5ffd5b5061046c60048036038101906104679190614c95565b6116c3565b6040516104799190614d3a565b60405180910390f35b34801561048d575f5ffd5b506104a860048036038101906104a39190614cd3565b611767565b6040516104b6929190614e1d565b60405180910390f35b3480156104ca575f5ffd5b506104e560048036038101906104e09190614598565b611787565b6040516104f2919061516f565b60405180910390f35b348015610506575f5ffd5b50610521600480360381019061051c9190614c95565b611c0b565b60405161052e9190614836565b60405180910390f35b348015610542575f5ffd5b5061055d60048036038101906105589190614dcd565b611c35565b005b34801561056a575f5ffd5b506105856004803603810190610580919061518f565b611c54565b005b348015610592575f5ffd5b506105ad60048036038101906105a89190614c95565b611d5f565b6040516105ba9190614d3a565b60405180910390f35b3480156105ce575f5ffd5b506105d7611d7f565b6040516105e49190614d3a565b60405180910390f35b3480156105f8575f5ffd5b50610613600480360381019061060e9190614598565b611d84565b6040516106209190614d3a565b60405180910390f35b348015610634575f5ffd5b5061064f600480360381019061064a9190614598565b611df6565b005b34801561065c575f5ffd5b5061067760048036038101906106729190614598565b612040565b6040516106849190614c52565b60405180910390f35b348015610698575f5ffd5b506106b360048036038101906106ae91906151d6565b612051565b6040516106c09190614836565b60405180910390f35b3480156106d4575f5ffd5b506106ef60048036038101906106ea9190614cd3565b612086565b6040516106fc9190614d3a565b60405180910390f35b348015610710575f5ffd5b5061071961213c565b005b348015610726575f5ffd5b50610741600480360381019061073c9190614598565b61214f565b60405161074e9190614d3a565b60405180910390f35b348015610762575f5ffd5b5061076b61216f565b6040516107789190614d3a565b60405180910390f35b34801561078c575f5ffd5b50610795612176565b6040516107a29190614c52565b60405180910390f35b3480156107b6575f5ffd5b506107bf61219e565b6040516107cc919061484f565b60405180910390f35b3480156107e0575f5ffd5b506107fb60048036038101906107f69190614cd3565b61222e565b604051610809929190614e1d565b60405180910390f35b34801561081d575f5ffd5b5061083860048036038101906108339190615226565b612283565b005b348015610845575f5ffd5b50610860600480360381019061085b9190615264565b612299565b005b34801561086d575f5ffd5b5061088860048036038101906108839190614598565b612482565b005b348015610895575f5ffd5b5061089e61270b565b6040516108ab9190614d3a565b60405180910390f35b3480156108bf575f5ffd5b506108da60048036038101906108d5919061535c565b612712565b005b3480156108e7575f5ffd5b506108f0612737565b6040516108fd9190614d3a565b60405180910390f35b348015610911575f5ffd5b5061092c60048036038101906109279190614598565b61273c565b604051610939919061484f565b60405180910390f35b34801561094d575f5ffd5b506109566127a2565b6040516109639190614d3a565b60405180910390f35b348015610977575f5ffd5b50610992600480360381019061098d91906153dc565b6127a7565b005b34801561099f575f5ffd5b506109a8612a46565b6040516109b59190614d3a565b60405180910390f35b3480156109c9575f5ffd5b506109e460048036038101906109df9190615448565b612a4d565b6040516109f19190614836565b60405180910390f35b610a146004803603810190610a0f9190614598565b612adb565b005b348015610a21575f5ffd5b50610a3c6004803603810190610a379190614cd3565b612c90565b005b600c602052805f5260405f205f91509050805f015f9054906101000a900473ffffffffffffffffffffffffffffffffffffffff1690806001018054610a82906154b3565b80601f0160208091040260200160405190810160405280929190818152602001828054610aae906154b3565b8015610af95780601f10610ad057610100808354040283529160200191610af9565b820191905f5260205f20905b815481529060010190602001808311610adc57829003601f168201915b505050505090806002018054610b0e906154b3565b80601f0160208091040260200160405190810160405280929190818152602001828054610b3a906154b3565b8015610b855780601f10610b5c57610100808354040283529160200191610b85565b820191905f5260205f20905b815481529060010190602001808311610b6857829003601f168201915b505050505090806003015490806004015490806005015f9054906101000a900460ff1690806006015490806007015490806008015490806009015490508a565b5f7f780e9d63000000000000000000000000000000000000000000000000000000007bffffffffffffffffffffffffffffffffffffffffffffffffffffffff1916827bffffffffffffffffffffffffffffffffffffffffffffffffffffffff19161480610c375750610c3682612d14565b5b9050919050565b60605f8054610c4c906154b3565b80601f0160208091040260200160405190810160405280929190818152602001828054610c78906154b3565b8015610cc35780601f10610c9a57610100808354040283529160200191610cc3565b820191905f5260205f20905b815481529060010190602001808311610ca657829003601f168201915b5050505050905090565b600d5f3373ffffffffffffffffffffffffffffffffffffffff1673ffffffffffffffffffffffffffffffffffffffff1681526020019081526020015f205f015f9054906101000a900460ff16610d58576040517f08c379a0000000000000000000000000000000000000000000000000000000008152600401610d4f9061552d565b60405180910390fd5b5f835111610d9b576040517f08c379a0000000000000000000000000000000000000000000000000000000008152600401610d9290615595565b60405180910390fd5b8151835114610ddf576040517f08c379a0000000000000000000000000000000000000000000000000000000008152600401610dd6906155fd565b60405180910390fd5b8051835114610e23576040517f08c379a0000000000000000000000000000000000000000000000000000000008152600401610e1a90615665565b60405180910390fd5b5f5f5f90505b8251811015610e6757828181518110610e4557610e44615683565b5b602002602001015182610e5891906156dd565b91508080600101915050610e29565b5060648114610eab576040517f08c379a0000000000000000000000000000000000000000000000000000000008152600401610ea290615780565b60405180910390fd5b610eb56012612df5565b5f610ec06012612e09565b90505f600c5f8381526020019081526020015f20905033815f015f6101000a81548173ffffffffffffffffffffffffffffffffffffffff021916908373ffffffffffffffffffffffffffffffffffffffff16021790555088816001019081610f28919061593e565b5087816002019081610f3a919061593e565b508681600301819055504281600601819055506212750042610f5c91906156dd565b81600701819055505f816005015f6101000a81548160ff02191690836003811115610f8a57610f89614681565b5b02179055505f5f90505b865181101561114b575f604051806101000160405280898481518110610fbd57610fbc615683565b5b60200260200101518152602001888481518110610fdd57610fdc615683565b5b60200260200101518152602001878481518110610ffd57610ffc615683565b5b60200260200101518152602001606488858151811061101f5761101e615683565b5b60200260200101518c6110329190615a0d565b61103c9190615a7b565b815260200160405180602001604052805f81525081526020015f600381111561106857611067614681565b5b81526020015f81526020015f815250905082600a0181908060018154018082558091505060019003905f5260205f2090600802015f909190919091505f820151815f0190816110b7919061593e565b5060208201518160010190816110cd919061593e565b50604082015181600201556060820151816003015560808201518160040190816110f7919061593e565b5060a0820151816005015f6101000a81548160ff0219169083600381111561112257611121614681565b5b021790555060c0820151816006015560e082015181600701555050508080600101915050610f94565b50817f7585f467599d0f008985f231af99293be388626ac16ca59505c2f8f88969cd63338b60405161117e929190615aab565b60405180910390a2505050505050505050565b5f61119b82612e15565b506111a582612e9b565b9050919050565b6111be82826111b9612ed4565b612edb565b5050565b600d602052805f5260405f205f91509050805f015f9054906101000a900460ff16908060010180546111f3906154b3565b80601f016020809104026020016040519081016040528092919081815260200182805461121f906154b3565b801561126a5780601f106112415761010080835404028352916020019161126a565b820191905f5260205f20905b81548152906001019060200180831161124d57829003601f168201915b5050505050908060020154905083565b5f600880549050905090565b5f600c5f8581526020019081526020015f2090505f81600a0184815481106112b1576112b0615683565b5b905f5260205f20906008020190505f600f5f3373ffffffffffffffffffffffffffffffffffffffff1673ffffffffffffffffffffffffffffffffffffffff1681526020019081526020015f205f8781526020019081526020015f20541161134d576040517f08c379a000000000000000000000000000000000000000000000000000000000815260040161134490615b23565b60405180910390fd5b6001600381111561136157611360614681565b5b816005015f9054906101000a900460ff16600381111561138457611383614681565b5b146113c4576040517f08c379a00000000000000000000000000000000000000000000000000000000081526004016113bb90615b8b565b60405180910390fd5b60115f3373ffffffffffffffffffffffffffffffffffffffff1673ffffffffffffffffffffffffffffffffffffffff1681526020019081526020015f205f8681526020019081526020015f205f8581526020019081526020015f205f9054906101000a900460ff161561146c576040517f08c379a000000000000000000000000000000000000000000000000000000000815260040161146390615bf3565b60405180910390fd5b600160115f3373ffffffffffffffffffffffffffffffffffffffff1673ffffffffffffffffffffffffffffffffffffffff1681526020019081526020015f205f8781526020019081526020015f205f8681526020019081526020015f205f6101000a81548160ff0219169083151502179055508215611558576002816005015f6101000a81548160ff0219169083600381111561150c5761150b614681565b5b021790555061151b8585612eed565b847f939da3b627c123c81fe5aacebf925163337a0d4f8a03724640618078cad248948560405161154b9190614d3a565b60405180910390a26115bd565b6003816005015f6101000a81548160ff0219169083600381111561157f5761157e614681565b5b0217905550847f2632a738857d774f3179abee0fa205787aea133c8f6d4cbfe4e605028d3e8230856040516115b49190615c5b565b60405180910390a25b5050505050565b5f73ffffffffffffffffffffffffffffffffffffffff168273ffffffffffffffffffffffffffffffffffffffff1603611634575f6040517f64a0ae9200000000000000000000000000000000000000000000000000000000815260040161162b9190614c52565b60405180910390fd5b5f6116478383611642612ed4565b613097565b90508373ffffffffffffffffffffffffffffffffffffffff168173ffffffffffffffffffffffffffffffffffffffff16146116bd578382826040517f64283d7b0000000000000000000000000000000000000000000000000000000081526004016116b493929190615c87565b60405180910390fd5b50505050565b5f6116cd83612086565b82106117125782826040517fa57d13dc000000000000000000000000000000000000000000000000000000008152600401611709929190615cbc565b60405180910390fd5b60065f8473ffffffffffffffffffffffffffffffffffffffff1673ffffffffffffffffffffffffffffffffffffffff1681526020019081526020015f205f8381526020019081526020015f2054905092915050565b6010602052805f5260405f205f91509050805f0154908060010154905082565b61178f6144da565b600c5f8381526020019081526020015f20604051806101600160405290815f82015f9054906101000a900473ffffffffffffffffffffffffffffffffffffffff1673ffffffffffffffffffffffffffffffffffffffff1673ffffffffffffffffffffffffffffffffffffffff168152602001600182018054611810906154b3565b80601f016020809104026020016040519081016040528092919081815260200182805461183c906154b3565b80156118875780601f1061185e57610100808354040283529160200191611887565b820191905f5260205f20905b81548152906001019060200180831161186a57829003601f168201915b505050505081526020016002820180546118a0906154b3565b80601f01602080910402602001604051908101604052809291908181526020018280546118cc906154b3565b80156119175780601f106118ee57610100808354040283529160200191611917565b820191905f5260205f20905b8154815290600101906020018083116118fa57829003601f168201915b505050505081526020016003820154815260200160048201548152602001600582015f9054906101000a900460ff16600381111561195857611957614681565b5b600381111561196a57611969614681565b5b815260200160068201548152602001600782015481526020016008820154815260200160098201548152602001600a8201805480602002602001604051908101604052809291908181526020015f905b82821015611bfc578382905f5260205f209060080201604051806101000160405290815f820180546119eb906154b3565b80601f0160208091040260200160405190810160405280929190818152602001828054611a17906154b3565b8015611a625780601f10611a3957610100808354040283529160200191611a62565b820191905f5260205f20905b815481529060010190602001808311611a4557829003601f168201915b50505050508152602001600182018054611a7b906154b3565b80601f0160208091040260200160405190810160405280929190818152602001828054611aa7906154b3565b8015611af25780601f10611ac957610100808354040283529160200191611af2565b820191905f5260205f20905b815481529060010190602001808311611ad557829003601f168201915b505050505081526020016002820154815260200160038201548152602001600482018054611b1f906154b3565b80601f0160208091040260200160405190810160405280929190818152602001828054611b4b906154b3565b8015611b965780601f10611b6d57610100808354040283529160200191611b96565b820191905f5260205f20905b815481529060010190602001808311611b7957829003601f168201915b50505050508152602001600582015f9054906101000a900460ff166003811115611bc357611bc2614681565b5b6003811115611bd557611bd4614681565b5b815260200160068201548152602001600782015481525050815260200190600101906119ba565b50505050815250509050919050565b600e602052815f5260405f20602052805f5260405f205f915091509054906101000a900460ff1681565b611c4f83838360405180602001604052805f815250612712565b505050565b5f815111611c97576040517f08c379a0000000000000000000000000000000000000000000000000000000008152600401611c8e90615d2d565b60405180910390fd5b5f600d5f3373ffffffffffffffffffffffffffffffffffffffff1673ffffffffffffffffffffffffffffffffffffffff1681526020019081526020015f2090506001815f015f6101000a81548160ff02191690831515021790555081816001019081611d03919061593e565b504281600201819055503373ffffffffffffffffffffffffffffffffffffffff167fcbd10c05d170a0368716429b8f44c3674382b4603d29d8e29049c62adb9d284f83604051611d53919061484f565b60405180910390a25050565b600f602052815f5260405f20602052805f5260405f205f91509150505481565b606481565b5f611d8d61127a565b8210611dd2575f826040517fa57d13dc000000000000000000000000000000000000000000000000000000008152600401611dc9929190615cbc565b60405180910390fd5b60088281548110611de657611de5615683565b5b905f5260205f2001549050919050565b611dfe6131b1565b5f600c5f8381526020019081526020015f20905060026003811115611e2657611e25614681565b5b816005015f9054906101000a900460ff166003811115611e4957611e48614681565b5b1480611e685750806007015442118015611e67575060148160080154105b5b611ea7576040517f08c379a0000000000000000000000000000000000000000000000000000000008152600401611e9e90615d95565b60405180910390fd5b5f600f5f3373ffffffffffffffffffffffffffffffffffffffff1673ffffffffffffffffffffffffffffffffffffffff1681526020019081526020015f205f8481526020019081526020015f205490505f8111611f39576040517f08c379a0000000000000000000000000000000000000000000000000000000008152600401611f3090615dfd565b60405180910390fd5b5f600f5f3373ffffffffffffffffffffffffffffffffffffffff1673ffffffffffffffffffffffffffffffffffffffff1681526020019081526020015f205f8581526020019081526020015f20819055505f3373ffffffffffffffffffffffffffffffffffffffff1682604051611faf90615e48565b5f6040518083038185875af1925050503d805f8114611fe9576040519150601f19603f3d011682016040523d82523d5f602084013e611fee565b606091505b5050905080612032576040517f08c379a000000000000000000000000000000000000000000000000000000000815260040161202990615ea6565b60405180910390fd5b50505061203d6131f7565b50565b5f61204a82612e15565b9050919050565b6011602052825f5260405f20602052815f5260405f20602052805f5260405f205f92509250509054906101000a900460ff1681565b5f5f73ffffffffffffffffffffffffffffffffffffffff168273ffffffffffffffffffffffffffffffffffffffff16036120f7575f6040517f89c62b640000000000000000000000000000000000000000000000000000000081526004016120ee9190614c52565b60405180910390fd5b60035f8373ffffffffffffffffffffffffffffffffffffffff1673ffffffffffffffffffffffffffffffffffffffff1681526020019081526020015f20549050919050565b612144613201565b61214d5f613288565b565b6014818154811061215e575f80fd5b905f5260205f20015f915090505481565b6203f48081565b5f600a5f9054906101000a900473ffffffffffffffffffffffffffffffffffffffff16905090565b6060600180546121ad906154b3565b80601f01602080910402602001604051908101604052809291908181526020018280546121d9906154b3565b80156122245780601f106121fb57610100808354040283529160200191612224565b820191905f5260205f20905b81548152906001019060200180831161220757829003601f168201915b5050505050905090565b5f5f5f60105f8573ffffffffffffffffffffffffffffffffffffffff1673ffffffffffffffffffffffffffffffffffffffff1681526020019081526020015f209050805f015481600101549250925050915091565b61229561228e612ed4565b838361334b565b5050565b5f600c5f8481526020019081526020015f209050805f015f9054906101000a900473ffffffffffffffffffffffffffffffffffffffff1673ffffffffffffffffffffffffffffffffffffffff163373ffffffffffffffffffffffffffffffffffffffff16148061233b575061230c612176565b73ffffffffffffffffffffffffffffffffffffffff163373ffffffffffffffffffffffffffffffffffffffff16145b806123595750806007015442118015612358575060148160080154105b5b806123da57506001600381111561237357612372614681565b5b816005015f9054906101000a900460ff16600381111561239657612395614681565b5b1480156123d957506212750081600a018260090154815481106123bc576123bb615683565b5b905f5260205f209060080201600601546123d691906156dd565b42115b5b612419576040517f08c379a000000000000000000000000000000000000000000000000000000000815260040161241090615f0e565b60405180910390fd5b6002816005015f6101000a81548160ff021916908360038111156124405761243f614681565b5b0217905550827fc7c129e53e59dadfa16305619e80c7519f1f6912c10915359fd75b56bcecdd7b83604051612475919061484f565b60405180910390a2505050565b5f600c5f8381526020019081526020015f20905080600701544211156124dd576040517f08c379a00000000000000000000000000000000000000000000000000000000081526004016124d490615f76565b60405180910390fd5b600e5f3373ffffffffffffffffffffffffffffffffffffffff1673ffffffffffffffffffffffffffffffffffffffff1681526020019081526020015f205f8381526020019081526020015f205f9054906101000a900460ff1615612576576040517f08c379a000000000000000000000000000000000000000000000000000000000815260040161256d90615bf3565b60405180910390fd5b5f600381111561258957612588614681565b5b816005015f9054906101000a900460ff1660038111156125ac576125ab614681565b5b146125ec576040517f08c379a00000000000000000000000000000000000000000000000000000000081526004016125e390615fde565b60405180910390fd5b6001600e5f3373ffffffffffffffffffffffffffffffffffffffff1673ffffffffffffffffffffffffffffffffffffffff1681526020019081526020015f205f8481526020019081526020015f205f6101000a81548160ff021916908315150217905550806008015f81548092919061266490615ffc565b9190505550817f34647120636ce03d739347e28e9d1bdd34fd03d066ae60439fb1be2721ad16cd336040516126999190614c52565b60405180910390a26014816008015410612707576001816005015f6101000a81548160ff021916908360038111156126d4576126d3614681565b5b0217905550817f371f68adf986bef1a3b7917c0747454c6a25610192c30a1009ccc33dc90f342360405160405180910390a25b5050565b6212750081565b61271d8484846115c4565b612731612728612ed4565b858585856134b4565b50505050565b601481565b606061274782612e15565b505f612751613660565b90505f81511161276f5760405180602001604052805f81525061279a565b8061277984613676565b60405160200161278a92919061607d565b6040516020818303038152906040525b915050919050565b600181565b5f600c5f8581526020019081526020015f209050600160038111156127cf576127ce614681565b5b816005015f9054906101000a900460ff1660038111156127f2576127f1614681565b5b14612832576040517f08c379a0000000000000000000000000000000000000000000000000000000008152600401612829906160ea565b60405180910390fd5b805f015f9054906101000a900473ffffffffffffffffffffffffffffffffffffffff1673ffffffffffffffffffffffffffffffffffffffff163373ffffffffffffffffffffffffffffffffffffffff16146128c2576040517f08c379a00000000000000000000000000000000000000000000000000000000081526004016128b990616152565b60405180910390fd5b80600901548314612908576040517f08c379a00000000000000000000000000000000000000000000000000000000081526004016128ff906161ba565b60405180910390fd5b5f81600a01848154811061291f5761291e615683565b5b905f5260205f20906008020190506212750082600a0183600901548154811061294b5761294a615683565b5b905f5260205f2090600802016006015461296591906156dd565b4211156129a7576040517f08c379a000000000000000000000000000000000000000000000000000000000815260040161299e90616248565b60405180910390fd5b828160040190816129b8919061593e565b506001816005015f6101000a81548160ff021916908360038111156129e0576129df614681565b5b02179055504281600601819055506203f480426129fd91906156dd565b8160070181905550847f556e3b296d5e8c8bab27684b52ae96905507befd2d188ce6f4453a6717dd9c008585604051612a37929190616266565b60405180910390a25050505050565b6212750081565b5f60055f8473ffffffffffffffffffffffffffffffffffffffff1673ffffffffffffffffffffffffffffffffffffffff1681526020019081526020015f205f8373ffffffffffffffffffffffffffffffffffffffff1673ffffffffffffffffffffffffffffffffffffffff1681526020019081526020015f205f9054906101000a900460ff16905092915050565b612ae36131b1565b5f600c5f8381526020019081526020015f20905060016003811115612b0b57612b0a614681565b5b816005015f9054906101000a900460ff166003811115612b2e57612b2d614681565b5b14612b6e576040517f08c379a0000000000000000000000000000000000000000000000000000000008152600401612b65906160ea565b60405180910390fd5b8060030154348260040154612b8391906156dd565b1115612bc4576040517f08c379a0000000000000000000000000000000000000000000000000000000008152600401612bbb906162de565b60405180910390fd5b34600f5f3373ffffffffffffffffffffffffffffffffffffffff1673ffffffffffffffffffffffffffffffffffffffff1681526020019081526020015f205f8481526020019081526020015f205f828254612c1f91906156dd565b9250508190555034816004015f828254612c3991906156dd565b92505081905550612c4a3334613740565b817ff8365d4d9099667b0e8a25091b48c493c5bc6e86ec76cff2edac212a8e776b403334604051612c7c929190615cbc565b60405180910390a250612c8d6131f7565b50565b612c98613201565b5f73ffffffffffffffffffffffffffffffffffffffff168173ffffffffffffffffffffffffffffffffffffffff1603612d08575f6040517f1e4fbdf7000000000000000000000000000000000000000000000000000000008152600401612cff9190614c52565b60405180910390fd5b612d1181613288565b50565b5f7f80ac58cd000000000000000000000000000000000000000000000000000000007bffffffffffffffffffffffffffffffffffffffffffffffffffffffff1916827bffffffffffffffffffffffffffffffffffffffffffffffffffffffff19161480612dde57507f5b5e139f000000000000000000000000000000000000000000000000000000007bffffffffffffffffffffffffffffffffffffffffffffffffffffffff1916827bffffffffffffffffffffffffffffffffffffffffffffffffffffffff1916145b80612dee5750612ded82613861565b5b9050919050565b6001815f015f828254019250508190555050565b5f815f01549050919050565b5f5f612e20836138ca565b90505f73ffffffffffffffffffffffffffffffffffffffff168173ffffffffffffffffffffffffffffffffffffffff1603612e9257826040517f7e273289000000000000000000000000000000000000000000000000000000008152600401612e899190614d3a565b60405180910390fd5b80915050919050565b5f60045f8381526020019081526020015f205f9054906101000a900473ffffffffffffffffffffffffffffffffffffffff169050919050565b5f33905090565b612ee88383836001613903565b505050565b5f600c5f8481526020019081526020015f2090505f81600a018381548110612f1857612f17615683565b5b905f5260205f20906008020190505f825f015f9054906101000a900473ffffffffffffffffffffffffffffffffffffffff1690505f826003015490505f8273ffffffffffffffffffffffffffffffffffffffff1682604051612f7990615e48565b5f6040518083038185875af1925050503d805f8114612fb3576040519150601f19603f3d011682016040523d82523d5f602084013e612fb8565b606091505b5050905080612ffc576040517f08c379a0000000000000000000000000000000000000000000000000000000008152600401612ff390616346565b60405180910390fd5b846009015f81548092919061301090615ffc565b919050555084600a0180549050856009015410613054576003856005015f6101000a81548160ff0219169083600381111561304e5761304d614681565b5b02179055505b867f32f00898ffc0a0efb5a059332f2cd7940e4e5d0822a940a102da96f8c14740ce8784604051613086929190614e1d565b60405180910390a250505050505050565b5f5f6130a4858585613ac2565b90505f73ffffffffffffffffffffffffffffffffffffffff168173ffffffffffffffffffffffffffffffffffffffff16036130e7576130e284613ccd565b613126565b8473ffffffffffffffffffffffffffffffffffffffff168173ffffffffffffffffffffffffffffffffffffffff1614613125576131248185613d11565b5b5b5f73ffffffffffffffffffffffffffffffffffffffff168573ffffffffffffffffffffffffffffffffffffffff16036131675761316284613de8565b6131a6565b8473ffffffffffffffffffffffffffffffffffffffff168173ffffffffffffffffffffffffffffffffffffffff16146131a5576131a48585613ea8565b5b5b809150509392505050565b6002600b54036131ed576040517f3ee5aeb500000000000000000000000000000000000000000000000000000000815260040160405180910390fd5b6002600b81905550565b6001600b81905550565b613209612ed4565b73ffffffffffffffffffffffffffffffffffffffff16613227612176565b73ffffffffffffffffffffffffffffffffffffffff16146132865761324a612ed4565b6040517f118cdaa700000000000000000000000000000000000000000000000000000000815260040161327d9190614c52565b60405180910390fd5b565b5f600a5f9054906101000a900473ffffffffffffffffffffffffffffffffffffffff16905081600a5f6101000a81548173ffffffffffffffffffffffffffffffffffffffff021916908373ffffffffffffffffffffffffffffffffffffffff1602179055508173ffffffffffffffffffffffffffffffffffffffff168173ffffffffffffffffffffffffffffffffffffffff167f8be0079c531659141344cd1fd0a4f28419497f9722a3daafe3b4186f6b6457e060405160405180910390a35050565b5f73ffffffffffffffffffffffffffffffffffffffff168273ffffffffffffffffffffffffffffffffffffffff16036133bb57816040517f5b08ba180000000000000000000000000000000000000000000000000000000081526004016133b29190614c52565b60405180910390fd5b8060055f8573ffffffffffffffffffffffffffffffffffffffff1673ffffffffffffffffffffffffffffffffffffffff1681526020019081526020015f205f8473ffffffffffffffffffffffffffffffffffffffff1673ffffffffffffffffffffffffffffffffffffffff1681526020019081526020015f205f6101000a81548160ff0219169083151502179055508173ffffffffffffffffffffffffffffffffffffffff168373ffffffffffffffffffffffffffffffffffffffff167f17307eab39ab6107e8899845ad3d59bd9653f200f220920489ca2b5937696c31836040516134a79190614836565b60405180910390a3505050565b5f8373ffffffffffffffffffffffffffffffffffffffff163b1115613659578273ffffffffffffffffffffffffffffffffffffffff1663150b7a02868685856040518563ffffffff1660e01b815260040161351294939291906163b6565b6020604051808303815f875af192505050801561354d57506040513d601f19601f8201168201806040525081019061354a9190616414565b60015b6135ce573d805f811461357b576040519150601f19603f3d011682016040523d82523d5f602084013e613580565b606091505b505f8151036135c657836040517f64a0ae920000000000000000000000000000000000000000000000000000000081526004016135bd9190614c52565b60405180910390fd5b805181602001fd5b63150b7a0260e01b7bffffffffffffffffffffffffffffffffffffffffffffffffffffffff1916817bffffffffffffffffffffffffffffffffffffffffffffffffffffffff19161461365757836040517f64a0ae9200000000000000000000000000000000000000000000000000000000815260040161364e9190614c52565b60405180910390fd5b505b5050505050565b606060405180602001604052805f815250905090565b60605f600161368484613f2c565b0190505f8167ffffffffffffffff8111156136a2576136a1614877565b5b6040519080825280601f01601f1916602001820160405280156136d45781602001600182028036833780820191505090505b5090505f82602001820190505b600115613735578080600190039150507f3031323334353637383961626364656600000000000000000000000000000000600a86061a8153600a858161372a57613729615a4e565b5b0494505f85036136e1575b819350505050919050565b5f60105f8473ffffffffffffffffffffffffffffffffffffffff1673ffffffffffffffffffffffffffffffffffffffff1681526020019081526020015f2090505f6001662386f26fc10000846137969190615a7b565b6137a09190615a0d565b905080825f015f8282546137b491906156dd565b925050819055505b6064600183600101546137cf91906156dd565b6137d99190615a0d565b825f01541061385b57816001015f8154809291906137f690615ffc565b91905055508373ffffffffffffffffffffffffffffffffffffffff167f91e51c29e7e87a74ad3b8ccba98538970f50a4309242735467f41e27c6b0fbac83600101546040516138459190614d3a565b60405180910390a26138568461407d565b6137bc565b50505050565b5f7f01ffc9a7000000000000000000000000000000000000000000000000000000007bffffffffffffffffffffffffffffffffffffffffffffffffffffffff1916827bffffffffffffffffffffffffffffffffffffffffffffffffffffffff1916149050919050565b5f60025f8381526020019081526020015f205f9054906101000a900473ffffffffffffffffffffffffffffffffffffffff169050919050565b808061393b57505f73ffffffffffffffffffffffffffffffffffffffff168273ffffffffffffffffffffffffffffffffffffffff1614155b15613a6d575f61394a84612e15565b90505f73ffffffffffffffffffffffffffffffffffffffff168373ffffffffffffffffffffffffffffffffffffffff16141580156139b457508273ffffffffffffffffffffffffffffffffffffffff168173ffffffffffffffffffffffffffffffffffffffff1614155b80156139c757506139c58184612a4d565b155b15613a0957826040517fa9fbf51f000000000000000000000000000000000000000000000000000000008152600401613a009190614c52565b60405180910390fd5b8115613a6b57838573ffffffffffffffffffffffffffffffffffffffff168273ffffffffffffffffffffffffffffffffffffffff167f8c5be1e5ebec7d5bd14f71427d1e84f3dd0314c0f7b2291e5b200ac8c7c3b92560405160405180910390a45b505b8360045f8581526020019081526020015f205f6101000a81548173ffffffffffffffffffffffffffffffffffffffff021916908373ffffffffffffffffffffffffffffffffffffffff16021790555050505050565b5f5f613acd846138ca565b90505f73ffffffffffffffffffffffffffffffffffffffff168373ffffffffffffffffffffffffffffffffffffffff1614613b0e57613b0d818486614224565b5b5f73ffffffffffffffffffffffffffffffffffffffff168173ffffffffffffffffffffffffffffffffffffffff1614613b9957613b4d5f855f5f613903565b600160035f8373ffffffffffffffffffffffffffffffffffffffff1673ffffffffffffffffffffffffffffffffffffffff1681526020019081526020015f205f82825403925050819055505b5f73ffffffffffffffffffffffffffffffffffffffff168573ffffffffffffffffffffffffffffffffffffffff1614613c1857600160035f8773ffffffffffffffffffffffffffffffffffffffff1673ffffffffffffffffffffffffffffffffffffffff1681526020019081526020015f205f82825401925050819055505b8460025f8681526020019081526020015f205f6101000a81548173ffffffffffffffffffffffffffffffffffffffff021916908373ffffffffffffffffffffffffffffffffffffffff160217905550838573ffffffffffffffffffffffffffffffffffffffff168273ffffffffffffffffffffffffffffffffffffffff167fddf252ad1be2c89b69c2b068fc378daa952ba7f163c4a11628f55a4df523b3ef60405160405180910390a4809150509392505050565b60088054905060095f8381526020019081526020015f2081905550600881908060018154018082558091505060019003905f5260205f20015f909190919091505550565b5f613d1b83612086565b90505f60075f8481526020019081526020015f205490505f60065f8673ffffffffffffffffffffffffffffffffffffffff1673ffffffffffffffffffffffffffffffffffffffff1681526020019081526020015f209050828214613dba575f815f8581526020019081526020015f2054905080825f8581526020019081526020015f20819055508260075f8381526020019081526020015f2081905550505b60075f8581526020019081526020015f205f9055805f8481526020019081526020015f205f90555050505050565b5f6001600880549050613dfb919061643f565b90505f60095f8481526020019081526020015f205490505f60088381548110613e2757613e26615683565b5b905f5260205f20015490508060088381548110613e4757613e46615683565b5b905f5260205f2001819055508160095f8381526020019081526020015f208190555060095f8581526020019081526020015f205f90556008805480613e8f57613e8e616472565b5b600190038181905f5260205f20015f9055905550505050565b5f6001613eb484612086565b613ebe919061643f565b90508160065f8573ffffffffffffffffffffffffffffffffffffffff1673ffffffffffffffffffffffffffffffffffffffff1681526020019081526020015f205f8381526020019081526020015f20819055508060075f8481526020019081526020015f2081905550505050565b5f5f5f90507a184f03e93ff9f4daa797ed6e38ed64bf6a1f0100000000000000008310613f88577a184f03e93ff9f4daa797ed6e38ed64bf6a1f0100000000000000008381613f7e57613f7d615a4e565b5b0492506040810190505b6d04ee2d6d415b85acef81000000008310613fc5576d04ee2d6d415b85acef81000000008381613fbb57613fba615a4e565b5b0492506020810190505b662386f26fc100008310613ff457662386f26fc100008381613fea57613fe9615a4e565b5b0492506010810190505b6305f5e100831061401d576305f5e100838161401357614012615a4e565b5b0492506008810190505b612710831061404257612710838161403857614037615a4e565b5b0492506004810190505b60648310614065576064838161405b5761405a615a4e565b5b0492506002810190505b600a8310614074576001810190505b80915050919050565b5f60105f8373ffffffffffffffffffffffffffffffffffffffff1673ffffffffffffffffffffffffffffffffffffffff1681526020019081526020015f2090505f5f90505b60148054905081101561421f57601481815481106140e3576140e2615683565b5b905f5260205f20015482600101541480156141375750816002015f6014838154811061411257614111615683565b5b905f5260205f20015481526020019081526020015f205f9054906101000a900460ff16155b15614212576141466013612df5565b5f6141516013612e09565b905061415d84826142e7565b6001836002015f6014858154811061417857614177615683565b5b905f5260205f20015481526020019081526020015f205f6101000a81548160ff0219169083151502179055508373ffffffffffffffffffffffffffffffffffffffff167f55144f84a06aba3b3a5c49b5d2d0d2a1fed9e25f465a2cc0f4a23b883c47821582601485815481106141f1576141f0615683565b5b905f5260205f200154604051614208929190614e1d565b60405180910390a2505b80806001019150506140c2565b505050565b61422f838383614304565b6142e2575f73ffffffffffffffffffffffffffffffffffffffff168373ffffffffffffffffffffffffffffffffffffffff16036142a357806040517f7e27328900000000000000000000000000000000000000000000000000000000815260040161429a9190614d3a565b60405180910390fd5b81816040517f177e802f0000000000000000000000000000000000000000000000000000000081526004016142d9929190615cbc565b60405180910390fd5b505050565b614300828260405180602001604052805f8152506143c4565b5050565b5f5f73ffffffffffffffffffffffffffffffffffffffff168373ffffffffffffffffffffffffffffffffffffffff16141580156143bb57508273ffffffffffffffffffffffffffffffffffffffff168473ffffffffffffffffffffffffffffffffffffffff16148061437c575061437b8484612a4d565b5b806143ba57508273ffffffffffffffffffffffffffffffffffffffff166143a283612e9b565b73ffffffffffffffffffffffffffffffffffffffff16145b5b90509392505050565b6143ce83836143e7565b6143e26143d9612ed4565b5f8585856134b4565b505050565b5f73ffffffffffffffffffffffffffffffffffffffff168273ffffffffffffffffffffffffffffffffffffffff1603614457575f6040517f64a0ae9200000000000000000000000000000000000000000000000000000000815260040161444e9190614c52565b60405180910390fd5b5f61446383835f613097565b90505f73ffffffffffffffffffffffffffffffffffffffff168173ffffffffffffffffffffffffffffffffffffffff16146144d5575f6040517f73c6ac6e0000000000000000000000000000000000000000000000000000000081526004016144cc9190614c52565b60405180910390fd5b505050565b6040518061016001604052805f73ffffffffffffffffffffffffffffffffffffffff16815260200160608152602001606081526020015f81526020015f81526020015f600381111561452f5761452e614681565b5b81526020015f81526020015f81526020015f81526020015f8152602001606081525090565b5f604051905090565b5f5ffd5b5f5ffd5b5f819050919050565b61457781614565565b8114614581575f5ffd5b50565b5f813590506145928161456e565b92915050565b5f602082840312156145ad576145ac61455d565b5b5f6145ba84828501614584565b91505092915050565b5f73ffffffffffffffffffffffffffffffffffffffff82169050919050565b5f6145ec826145c3565b9050919050565b6145fc816145e2565b82525050565b5f81519050919050565b5f82825260208201905092915050565b8281835e5f83830152505050565b5f601f19601f8301169050919050565b5f61464482614602565b61464e818561460c565b935061465e81856020860161461c565b6146678161462a565b840191505092915050565b61467b81614565565b82525050565b7f4e487b71000000000000000000000000000000000000000000000000000000005f52602160045260245ffd5b600481106146bf576146be614681565b5b50565b5f8190506146cf826146ae565b919050565b5f6146de826146c2565b9050919050565b6146ee816146d4565b82525050565b5f610140820190506147085f83018d6145f3565b818103602083015261471a818c61463a565b9050818103604083015261472e818b61463a565b905061473d606083018a614672565b61474a6080830189614672565b61475760a08301886146e5565b61476460c0830187614672565b61477160e0830186614672565b61477f610100830185614672565b61478d610120830184614672565b9b9a5050505050505050505050565b5f7fffffffff0000000000000000000000000000000000000000000000000000000082169050919050565b6147d08161479c565b81146147da575f5ffd5b50565b5f813590506147eb816147c7565b92915050565b5f602082840312156148065761480561455d565b5b5f614813848285016147dd565b91505092915050565b5f8115159050919050565b6148308161481c565b82525050565b5f6020820190506148495f830184614827565b92915050565b5f6020820190508181035f830152614867818461463a565b905092915050565b5f5ffd5b5f5ffd5b7f4e487b71000000000000000000000000000000000000000000000000000000005f52604160045260245ffd5b6148ad8261462a565b810181811067ffffffffffffffff821117156148cc576148cb614877565b5b80604052505050565b5f6148de614554565b90506148ea82826148a4565b919050565b5f67ffffffffffffffff82111561490957614908614877565b5b6149128261462a565b9050602081019050919050565b828183375f83830152505050565b5f61493f61493a846148ef565b6148d5565b90508281526020810184848401111561495b5761495a614873565b5b61496684828561491f565b509392505050565b5f82601f8301126149825761498161486f565b5b813561499284826020860161492d565b91505092915050565b5f67ffffffffffffffff8211156149b5576149b4614877565b5b602082029050602081019050919050565b5f5ffd5b5f6149dc6149d78461499b565b6148d5565b905080838252602082019050602084028301858111156149ff576149fe6149c6565b5b835b81811015614a4657803567ffffffffffffffff811115614a2457614a2361486f565b5b808601614a31898261496e565b85526020850194505050602081019050614a01565b5050509392505050565b5f82601f830112614a6457614a6361486f565b5b8135614a748482602086016149ca565b91505092915050565b5f67ffffffffffffffff821115614a9757614a96614877565b5b602082029050602081019050919050565b5f614aba614ab584614a7d565b6148d5565b90508083825260208201905060208402830185811115614add57614adc6149c6565b5b835b81811015614b065780614af28882614584565b845260208401935050602081019050614adf565b5050509392505050565b5f82601f830112614b2457614b2361486f565b5b8135614b34848260208601614aa8565b91505092915050565b5f5f5f5f5f5f60c08789031215614b5757614b5661455d565b5b5f87013567ffffffffffffffff811115614b7457614b73614561565b5b614b8089828a0161496e565b965050602087013567ffffffffffffffff811115614ba157614ba0614561565b5b614bad89828a0161496e565b9550506040614bbe89828a01614584565b945050606087013567ffffffffffffffff811115614bdf57614bde614561565b5b614beb89828a01614a50565b935050608087013567ffffffffffffffff811115614c0c57614c0b614561565b5b614c1889828a01614a50565b92505060a087013567ffffffffffffffff811115614c3957614c38614561565b5b614c4589828a01614b10565b9150509295509295509295565b5f602082019050614c655f8301846145f3565b92915050565b614c74816145e2565b8114614c7e575f5ffd5b50565b5f81359050614c8f81614c6b565b92915050565b5f5f60408385031215614cab57614caa61455d565b5b5f614cb885828601614c81565b9250506020614cc985828601614584565b9150509250929050565b5f60208284031215614ce857614ce761455d565b5b5f614cf584828501614c81565b91505092915050565b5f606082019050614d115f830186614827565b8181036020830152614d23818561463a565b9050614d326040830184614672565b949350505050565b5f602082019050614d4d5f830184614672565b92915050565b614d5c8161481c565b8114614d66575f5ffd5b50565b5f81359050614d7781614d53565b92915050565b5f5f5f60608486031215614d9457614d9361455d565b5b5f614da186828701614584565b9350506020614db286828701614584565b9250506040614dc386828701614d69565b9150509250925092565b5f5f5f60608486031215614de457614de361455d565b5b5f614df186828701614c81565b9350506020614e0286828701614c81565b9250506040614e1386828701614584565b9150509250925092565b5f604082019050614e305f830185614672565b614e3d6020830184614672565b9392505050565b614e4d816145e2565b82525050565b5f82825260208201905092915050565b5f614e6d82614602565b614e778185614e53565b9350614e8781856020860161461c565b614e908161462a565b840191505092915050565b614ea481614565565b82525050565b614eb3816146d4565b82525050565b5f81519050919050565b5f82825260208201905092915050565b5f819050602082019050919050565b60048110614ef357614ef2614681565b5b50565b5f819050614f0382614ee2565b919050565b5f614f1282614ef6565b9050919050565b614f2281614f08565b82525050565b5f61010083015f8301518482035f860152614f438282614e63565b91505060208301518482036020860152614f5d8282614e63565b9150506040830151614f726040860182614e9b565b506060830151614f856060860182614e9b565b5060808301518482036080860152614f9d8282614e63565b91505060a0830151614fb260a0860182614f19565b5060c0830151614fc560c0860182614e9b565b5060e0830151614fd860e0860182614e9b565b508091505092915050565b5f614fee8383614f28565b905092915050565b5f602082019050919050565b5f61500c82614eb9565b6150168185614ec3565b93508360208202850161502885614ed3565b805f5b8581101561506357848403895281516150448582614fe3565b945061504f83614ff6565b925060208a0199505060018101905061502b565b50829750879550505050505092915050565b5f61016083015f83015161508b5f860182614e44565b50602083015184820360208601526150a38282614e63565b915050604083015184820360408601526150bd8282614e63565b91505060608301516150d26060860182614e9b565b5060808301516150e56080860182614e9b565b5060a08301516150f860a0860182614eaa565b5060c083015161510b60c0860182614e9b565b5060e083015161511e60e0860182614e9b565b50610100830151615133610100860182614e9b565b50610120830151615148610120860182614e9b565b506101408301518482036101408601526151628282615002565b9150508091505092915050565b5f6020820190508181035f8301526151878184615075565b905092915050565b5f602082840312156151a4576151a361455d565b5b5f82013567ffffffffffffffff8111156151c1576151c0614561565b5b6151cd8482850161496e565b91505092915050565b5f5f5f606084860312156151ed576151ec61455d565b5b5f6151fa86828701614c81565b935050602061520b86828701614584565b925050604061521c86828701614584565b9150509250925092565b5f5f6040838503121561523c5761523b61455d565b5b5f61524985828601614c81565b925050602061525a85828601614d69565b9150509250929050565b5f5f6040838503121561527a5761527961455d565b5b5f61528785828601614584565b925050602083013567ffffffffffffffff8111156152a8576152a7614561565b5b6152b48582860161496e565b9150509250929050565b5f67ffffffffffffffff8211156152d8576152d7614877565b5b6152e18261462a565b9050602081019050919050565b5f6153006152fb846152be565b6148d5565b90508281526020810184848401111561531c5761531b614873565b5b61532784828561491f565b509392505050565b5f82601f8301126153435761534261486f565b5b81356153538482602086016152ee565b91505092915050565b5f5f5f5f608085870312156153745761537361455d565b5b5f61538187828801614c81565b945050602061539287828801614c81565b93505060406153a387828801614584565b925050606085013567ffffffffffffffff8111156153c4576153c3614561565b5b6153d08782880161532f565b91505092959194509250565b5f5f5f606084860312156153f3576153f261455d565b5b5f61540086828701614584565b935050602061541186828701614584565b925050604084013567ffffffffffffffff81111561543257615431614561565b5b61543e8682870161496e565b9150509250925092565b5f5f6040838503121561545e5761545d61455d565b5b5f61546b85828601614c81565b925050602061547c85828601614c81565b9150509250929050565b7f4e487b71000000000000000000000000000000000000000000000000000000005f52602260045260245ffd5b5f60028204905060018216806154ca57607f821691505b6020821081036154dd576154dc615486565b5b50919050565b7f4b5943206e6f74207665726966696564000000000000000000000000000000005f82015250565b5f61551760108361460c565b9150615522826154e3565b602082019050919050565b5f6020820190508181035f8301526155448161550b565b9050919050565b7f4174206c65617374206f6e65206d696c6573746f6e65207265717569726564005f82015250565b5f61557f601f8361460c565b915061558a8261554b565b602082019050919050565b5f6020820190508181035f8301526155ac81615573565b9050919050565b7f4d696c6573746f6e652064657461696c73206d69736d617463680000000000005f82015250565b5f6155e7601a8361460c565b91506155f2826155b3565b602082019050919050565b5f6020820190508181035f830152615614816155db565b9050919050565b7f4d696c6573746f6e652070657263656e7461676573206d69736d6174636800005f82015250565b5f61564f601e8361460c565b915061565a8261561b565b602082019050919050565b5f6020820190508181035f83015261567c81615643565b9050919050565b7f4e487b71000000000000000000000000000000000000000000000000000000005f52603260045260245ffd5b7f4e487b71000000000000000000000000000000000000000000000000000000005f52601160045260245ffd5b5f6156e782614565565b91506156f283614565565b925082820190508082111561570a576157096156b0565b5b92915050565b7f4d696c6573746f6e652070657263656e7461676573206d75737420746f74616c5f8201527f2031303025000000000000000000000000000000000000000000000000000000602082015250565b5f61576a60258361460c565b915061577582615710565b604082019050919050565b5f6020820190508181035f8301526157978161575e565b9050919050565b5f819050815f5260205f209050919050565b5f6020601f8301049050919050565b5f82821b905092915050565b5f600883026157fa7fffffffffffffffffffffffffffffffffffffffffffffffffffffffffffffffff826157bf565b61580486836157bf565b95508019841693508086168417925050509392505050565b5f819050919050565b5f61583f61583a61583584614565565b61581c565b614565565b9050919050565b5f819050919050565b61585883615825565b61586c61586482615846565b8484546157cb565b825550505050565b5f5f905090565b615883615874565b61588e81848461584f565b505050565b5b818110156158b1576158a65f8261587b565b600181019050615894565b5050565b601f8211156158f6576158c78161579e565b6158d0846157b0565b810160208510156158df578190505b6158f36158eb856157b0565b830182615893565b50505b505050565b5f82821c905092915050565b5f6159165f19846008026158fb565b1980831691505092915050565b5f61592e8383615907565b9150826002028217905092915050565b61594782614602565b67ffffffffffffffff8111156159605761595f614877565b5b61596a82546154b3565b6159758282856158b5565b5f60209050601f8311600181146159a6575f8415615994578287015190505b61599e8582615923565b865550615a05565b601f1984166159b48661579e565b5f5b828110156159db578489015182556001820191506020850194506020810190506159b6565b868310156159f857848901516159f4601f891682615907565b8355505b6001600288020188555050505b505050505050565b5f615a1782614565565b9150615a2283614565565b9250828202615a3081614565565b91508282048414831517615a4757615a466156b0565b5b5092915050565b7f4e487b71000000000000000000000000000000000000000000000000000000005f52601260045260245ffd5b5f615a8582614565565b9150615a9083614565565b925082615aa057615a9f615a4e565b5b828204905092915050565b5f604082019050615abe5f8301856145f3565b8181036020830152615ad0818461463a565b90509392505050565b7f4e6f74206120646f6e6f720000000000000000000000000000000000000000005f82015250565b5f615b0d600b8361460c565b9150615b1882615ad9565b602082019050919050565b5f6020820190508181035f830152615b3a81615b01565b9050919050565b7f4d696c6573746f6e65206e6f74207375626d69747465640000000000000000005f82015250565b5f615b7560178361460c565b9150615b8082615b41565b602082019050919050565b5f6020820190508181035f830152615ba281615b69565b9050919050565b7f416c726561647920766f746564000000000000000000000000000000000000005f82015250565b5f615bdd600d8361460c565b9150615be882615ba9565b602082019050919050565b5f6020820190508181035f830152615c0a81615bd1565b9050919050565b7f446f6e6f722072656a65637465640000000000000000000000000000000000005f82015250565b5f615c45600e8361460c565b9150615c5082615c11565b602082019050919050565b5f604082019050615c6e5f830184614672565b8181036020830152615c7f81615c39565b905092915050565b5f606082019050615c9a5f8301866145f3565b615ca76020830185614672565b615cb460408301846145f3565b949350505050565b5f604082019050615ccf5f8301856145f3565b615cdc6020830184614672565b9392505050565b7f496e76616c696420646f63756d656e74206861736800000000000000000000005f82015250565b5f615d1760158361460c565b9150615d2282615ce3565b602082019050919050565b5f6020820190508181035f830152615d4481615d0b565b9050919050565b7f50726f706f73616c206e6f7420656c696769626c6520666f7220726566756e645f82015250565b5f615d7f60208361460c565b9150615d8a82615d4b565b602082019050919050565b5f6020820190508181035f830152615dac81615d73565b9050919050565b7f4e6f20646f6e6174696f6e7320746f20726566756e64000000000000000000005f82015250565b5f615de760168361460c565b9150615df282615db3565b602082019050919050565b5f6020820190508181035f830152615e1481615ddb565b9050919050565b5f81905092915050565b50565b5f615e335f83615e1b565b9150615e3e82615e25565b5f82019050919050565b5f615e5282615e28565b9150819050919050565b7f526566756e64207472616e73666572206661696c6564000000000000000000005f82015250565b5f615e9060168361460c565b9150615e9b82615e5c565b602082019050919050565b5f6020820190508181035f830152615ebd81615e84565b9050919050565b7f43616e6e6f742063616e63656c2070726f706f73616c000000000000000000005f82015250565b5f615ef860168361460c565b9150615f0382615ec4565b602082019050919050565b5f6020820190508181035f830152615f2581615eec565b9050919050565b7f566f74696e6720706572696f64206578706972656400000000000000000000005f82015250565b5f615f6060158361460c565b9150615f6b82615f2c565b602082019050919050565b5f6020820190508181035f830152615f8d81615f54565b9050919050565b7f496e76616c69642070726f706f73616c207374617475730000000000000000005f82015250565b5f615fc860178361460c565b9150615fd382615f94565b602082019050919050565b5f6020820190508181035f830152615ff581615fbc565b9050919050565b5f61600682614565565b91507fffffffffffffffffffffffffffffffffffffffffffffffffffffffffffffffff8203616038576160376156b0565b5b600182019050919050565b5f81905092915050565b5f61605782614602565b6160618185616043565b935061607181856020860161461c565b80840191505092915050565b5f616088828561604d565b9150616094828461604d565b91508190509392505050565b7f50726f706f73616c206e6f7420616374697665000000000000000000000000005f82015250565b5f6160d460138361460c565b91506160df826160a0565b602082019050919050565b5f6020820190508181035f830152616101816160c8565b9050919050565b7f4f6e6c792070726f706f73616c2063726561746f722063616e207375626d69745f82015250565b5f61613c60208361460c565b915061614782616108565b602082019050919050565b5f6020820190508181035f83015261616981616130565b9050919050565b7f496e76616c6964206d696c6573746f6e650000000000000000000000000000005f82015250565b5f6161a460118361460c565b91506161af82616170565b602082019050919050565b5f6020820190508181035f8301526161d181616198565b9050919050565b7f4d696c6573746f6e65207375626d697373696f6e20646561646c696e652070615f8201527f7373656400000000000000000000000000000000000000000000000000000000602082015250565b5f61623260248361460c565b915061623d826161d8565b604082019050919050565b5f6020820190508181035f83015261625f81616226565b9050919050565b5f6040820190506162795f830185614672565b818103602083015261628b818461463a565b90509392505050565b7f46756e64696e6720676f616c20657863656564656400000000000000000000005f82015250565b5f6162c860158361460c565b91506162d382616294565b602082019050919050565b5f6020820190508181035f8301526162f5816162bc565b9050919050565b7f46756e64207472616e73666572206661696c65640000000000000000000000005f82015250565b5f61633060148361460c565b915061633b826162fc565b602082019050919050565b5f6020820190508181035f83015261635d81616324565b9050919050565b5f81519050919050565b5f82825260208201905092915050565b5f61638882616364565b616392818561636e565b93506163a281856020860161461c565b6163ab8161462a565b840191505092915050565b5f6080820190506163c95f8301876145f3565b6163d660208301866145f3565b6163e36040830185614672565b81810360608301526163f5818461637e565b905095945050505050565b5f8151905061640e816147c7565b92915050565b5f602082840312156164295761642861455d565b5b5f61643684828501616400565b91505092915050565b5f61644982614565565b915061645483614565565b925082820390508181111561646c5761646b6156b0565b5b92915050565b7f4e487b71000000000000000000000000000000000000000000000000000000005f52603160045260245ffdfea2646970667358221220ea942296333e10fb9aa39cfc84082c5c3001299cc7e8f1d5f51936db546548d264736f6c634300081c0033","linkReferences":{}},"methodIdentifiers":{"MILESTONE_APPROVAL_PERIOD()":"8acd2fe7","MILESTONE_SUBMISSION_PERIOD()":"e12ae951","NFT_MILESTONE_LEVELS(uint256)":"870a08f0","VOTES_REQUIRED()":"c4d665f1","VOTING_PERIOD()":"b1610d7e","XP_LEVEL_THRESHOLD()":"4a0d5b77","XP_PER_ETH()":"d8353915","approve(address,uint256)":"095ea7b3","approveMilestone(uint256,uint256,bool)":"20337a4d","balanceOf(address)":"70a08231","cancelProposal(uint256,string)":"a351f615","createProposal(string,string,uint256,string[],string[],uint256[])":"07960d93","donate(uint256)":"f14faf6f","getApproved(uint256)":"081812fc","getProposalDetails(uint256)":"3b4d01a7","getUserProfile(address)":"987ee156","hasVoted(address,uint256)":"42545825","isApprovedForAll(address,address)":"e985e9c5","kycVerifications(address)":"0e4d1d3f","milestoneApprovals(address,uint256,uint256)":"65a28540","name()":"06fdde03","owner()":"8da5cb5b","ownerOf(uint256)":"6352211e","proposals(uint256)":"013cf08b","refundDonors(uint256)":"608bdc08","renounceOwnership()":"715018a6","safeTransferFrom(address,address,uint256)":"42842e0e","safeTransferFrom(address,address,uint256,bytes)":"b88d4fde","setApprovalForAll(address,bool)":"a22cb465","submitKYC(string)":"453ae3cf","submitMilestoneDocument(uint256,uint256,string)":"dd87fc2e","supportsInterface(bytes4)":"01ffc9a7","symbol()":"95d89b41","tokenByIndex(uint256)":"4f6ccce7","tokenOfOwnerByIndex(address,uint256)":"2f745c59","tokenURI(uint256)":"c87b56dd","totalSupply()":"18160ddd","transferFrom(address,address,uint256)":"23b872dd","transferOwnership(address)":"f2fde38b","userDonations(address,uint256)":"4933e631","userProfiles(address)":"332d56d7","voteOnProposal(uint256)":"add68edc"},"id":19}